:100000000C9469000C94FB310C94D02E0C94FB31B1
:100010000C94FB310C94FB310C94FB310C94FB31B0
:100020000C94FB310C94FB310C94FB310C94FB31A0
:100030000C94FB310C94FB310C94FB310C94FB3190
:100040000C94FB310C94FB310C94FB310C94FB3180
:100050000C94FB310C94FB310C94FB310C94FB3170
:100060000C94FB310C94FB310C94FB310C94FB3160
:100070000C94FB310C94381C0C94FB310C94D42759
:100080000C94FD270C94582D0C94FB310C94FB31EF
:1000900028002CC9802CC92CED0064242CED2D11D6
:1000A000802D112D380064482D382D48802D482D85
:1000B0004C00646F2D4C2D54802D542D58006473CA
:1000C0002D582D6E802D6E2D6F0021572D6F2D71A7
:1000D000800011241FBECFEFCDBFDFE3DEBFE0E91C
:1000E000F0E040E017C0B591A591359125910591BB
:1000F00007FD0CC095918591EF01F92FE82F059030
:100100000D92A217B307D9F7FE0104C01D92A217E2
:10011000B307E1F7E13DF40731F70E94402A0C9460
:060120009100F894FFCFEE
:10012600AF92BF92CF92DF92EF92FF920F931F93FF
:10013600CF93DF9300D0CDB7DEB7F82E0091042819
:100146001091052800381105A8F082E090E00E9481
:10015600F92610920428109205288F2D0E94283027
:10016600882321F081E08093892CEAC183E0809383
:10017600892CE6C18091892C8130A9F038F0823033
:1001860009F421C1833009F490C198C11092042862
:100196001092052881E08093892C8F2D0E942830AB
:1001A600882361F0CDC18F2D0E942830882309F461
:1001B60089C10115110509F090C1C2C181E090E025
:1001C6008093042890930528F0920728B9C10F2E32
:1001D600FEEEEF2EFAE8FF2EF02D00E010E06801AB
:1001E600AE014F5F5F4F67E078E2D7018D919C913A
:1001F6000E94E21E882381F0C601880F991F880F8E
:10020600991F8C0D9D1D82519547809300289093D0
:1002160001280B1548F07CC10F5F1F4FB5E0EB0EB0
:10022600F11C0B15E0F270C11092062809811A81A3
:10023600F80180818D3309F06FC181810E942830D9
:1002460081116AC10F5F1F4F86E898E2D82ED01A37
:1002560000938A2C10938B2CDD2009F459C1E12CD4
:100266005801D8018C910E94AB2BF82EF80181938E
:100276008F010E942830882359F0EE2009F448C1E6
:10028600D5011C92809106288F5F8093062844C171
:10029600BCE2FB1212C0EE2009F43AC1F801319714
:1002A6001082E0910628EF5FE0930628F0E0EE0F5B
:1002B600FF1FE657F34D00831183E394DE1409F420
:1002C60027C1809106288F3058F222C1E091062876
:1002D600EE23B1F1F0E0EE0FFF1FE857F34D40E0DB
:1002E60050E0BE016F5F7F4F808191810E94910433
:1002F60060938728709388286130744068F080E0A6
:1003060094E0809387289093882884E090E00E9468
:10031600F9261092892C14C1E981FA818081811114
:1003260008C08BEC91E90E94792C82E08093892C9D
:1003360007C184E090E00E94F9261092892C00C142
:1003460081E090E00E94F9261092892CF9C0028083
:10035600F381E02D22E038E249E858E26AE87CE2DF
:100366008091062809956C018091022890910328B6
:10037600892B19F18091502D9091512D892BE9F0FF
:100386000F2EF9E8EF2EF8E2FF2EF02D00E010E038
:10039600E091502DF091512DD7018D917D01099558
:1003A6000F5F1F4F809102289091032808171907A5
:1003B60078F38DEC91E90E94792CC6010E94F9260A
:1003C6001092892CBDC000910228109103280115B6
:1003D600110539F48F2D0E942830882309F4A8C00E
:1003E600AFC080918728909188280817190758F47C
:1003F600C80101968093022890930328F801E757D5
:10040600F74DF0829DC08F2D0E942830882309F475
:1004160044C08DEC91E90E94792CE0910028F0917E
:1004260001280280F381E02D22E038E249E858E213
:100436006AE87CE28091062809956C018091022881
:1004460090910328892BF9F08091502D9091512D90
:10045600892BC9F00F2EF9E8EF2EF8E2FF2EF02DCA
:1004660000E010E0E091502DF091512DD7018D91D3
:100476007D0109950F5F1F4F8091022890910328F7
:100486000817190778F38DEC91E90E94792CC601BB
:100496000E94F9261092892C53C084E090E00E94B5
:1004A600F92683E08093892C4BC08F2D0E9428303B
:1004B600882309F445C01092892C42C083E08093BA
:1004C600892C3EC0C8010196809304289093052884
:1004D600F801E95FF74DF08233C0C80101968093B9
:1004E600042890930528F801E95FF74DF0828DEC1A
:1004F60091E90E94792C87E098E289839A830E9489
:10050600FD31B82E811163CECC24C394D12C55CFA6
:10051600CC24C394D12C51CF1092022810920328D8
:10052600E0910028F091012884818111CFCE0FCF70
:100536008091872890918828892B09F4AECF58CFCF
:100546000F900F90DF91CF911F910F91FF90EF9039
:0A055600DF90CF90BF90AF900895A2
:10056000ABE0B0E0E6EBF2E00C94602C6C017B01B8
:100570008A01FC0116821782838181FFCCC1CE01E2
:1005800001963C01F6019381F70193FD859193FF5C
:1005900081917F01882309F4BAC1853239F493FD32
:1005A000859193FF81917F01853229F4B60190E016
:1005B0000E941122E7CF912C212C312CFFE1F31561
:1005C000D8F08B3279F038F4803279F08332A1F4AC
:1005D000232D20611DC08D3261F0803369F4232DFD
:1005E000216016C0832D8260382EE32DE4603E2EFC
:1005F0002AC0F32DF8601DC037FC2DC020ED280F58
:100600002A3040F08E32B9F436FC81C1232D2064AB
:10061000322E19C036FE06C08AE0989E200D1124A5
:10062000922E11C0EAE02E9E200D1124222EF32DD1
:10063000F0623F2E08C08C3621F4832D8068382E5E
:1006400002C0883641F4F70193FD859193FF8191B3
:100650007F018111B3CF982F9F7D9554933028F45B
:100660000C5F1F4F9FE399830DC0833631F08337B2
:1006700071F0833509F059C021C0F8018081898368
:100680000E5F1F4F88248394912C530113C02801BF
:10069000F2E04F0E511CF801A080B18036FE03C07D
:1006A000692D70E002C06FEF7FEFC5010E941D3021
:1006B0004C018201F32DFF773F2E16C0280122E066
:1006C000420E511CF801A080B18036FE03C0692D96
:1006D00070E002C06FEF7FEFC5010E9412304C0145
:1006E000F32DF0683F2E820133FC1BC0822D90E079
:1006F00088169906B0F4B60180E290E00E941122BB
:100700002A94F4CFF50137FC859137FE81915F0182
:10071000B60190E00E94112221102A9421E0821A51
:1007200091088114910471F7E8C0843611F089367C
:1007300041F5F80137FE07C06081718182819381A4
:100740000C5F1F4F08C060817181072E000C880B61
:10075000990B0E5F1F4FF32DFF763F2E97FF09C0B9
:1007600090958095709561957F4F8F4F9F4FF06862
:100770003F2E2AE030E0A3010E948015882E8618C3
:1007800045C0853731F4232D2F7EB22E2AE030E08C
:1007900025C0932D997FB92E8F36C1F018F4883576
:1007A00079F0B5C0803719F0883721F0B0C0E92F53
:1007B000E061BE2EB4FE0DC0FB2DF460BF2E09C05B
:1007C00034FE0AC0292F2660B22E06C028E030E091
:1007D00005C020E130E002C020E132E0F801B7FEC0
:1007E00007C060817181828193810C5F1F4F06C0B9
:1007F0006081718180E090E00E5F1F4FA3010E9435
:100800008015882E8618FB2DFF773F2E36FE0DC0F3
:10081000232D2E7FA22E891458F434FE0BC032FCF7
:1008200009C0832D8E7EA82E05C0B82CA32C03C032
:10083000B82C01C0B92CA4FE0FC0FE01E80DF11DBB
:100840008081803321F49A2D997EA92E09C0A2FEC1
:1008500006C0B394B39404C08A2D867809F0B3948B
:10086000A3FC11C0A0FE06C0B21488F4280C922C80
:100870009B180EC0B21460F4B60180E290E00E94B2
:100880001122B394F7CFB21418F42B1802C0982C8D
:10089000212CA4FE10C0B60180E390E00E9411223A
:1008A000A2FE17C0A1FC03C088E790E002C088E563
:1008B00090E0B6010CC08A2D867859F0A1FE02C0E6
:1008C0008BE201C080E2A7FC8DE2B60190E00E94BD
:1008D0001122891438F4B60180E390E00E941122BD
:1008E0009A94F7CF8A94F301E80DF11D8081B60147
:1008F00090E00E9411228110F5CF222009F442CE0F
:10090000B60180E290E00E9411222A94F6CFF6010F
:100910008681978102C08FEF9FEF2B96E2E10C94C6
:02092000A92C00
:10092200A0E0B0E0E7E9F4E00C94612C5C016B011B
:100932007A016115710519F0FB0180839183E1143D
:10094200F10429F0C7010297839708F0E5C0E50199
:100952002196F5011081812F90E00E94BA30892BF7
:1009620011F05E01F4CF1D3229F42196F5011181B7
:1009720001E007C01B3221F4E5012296F501118145
:1009820000E0E114F10409F1F0E1EF16F10429F4B9
:100992003FC010E3E114F10421F128E0E216F10472
:1009A20001F154F4E2E0EE16F10421F5812C912CD0
:1009B200A12CB0E4BB2E3EC0FAE0EF16F10439F0F0
:1009C20020E1E216F104B1F430C0103319F1FAE07B
:1009D200EF2EF12CACEC8A2E982CA82CACE0BA2E7F
:1009E20029C078E0E72EF12C812C912CA12CE0E19A
:1009F200BE2E20C060E070E080E090E897010F2CEE
:100A0200000C440B550B0E949A2949015A0112C04D
:100A1200103359F488818F7D883509F0BACF198156
:100A22002296026080E1E82EF12C812C912CA12CDF
:100A320068E0B62E40E060E070E0CB0127010F2CA9
:100A4200000C66087708FE0150ED352E310E29E0C4
:100A5200231570F42FEB210F2A3118F439EC332EC1
:100A620006C02FE9210F2A3118F529EA322E310E5C
:100A7200232D30E02E153F05DCF447FD16C0861607
:100A82009706A806B90670F0A30192010E94932E60
:100A9200630D711D811D911D61307105810520E875
:100AA200920710F04FEF01C041E021961081CBCFA9
:100AB200202F2170C114D10471F0442329F0219711
:100AC200F601C083D18307C001FF19C02297F60146
:100AD200C083D18314C047FF12C0222329F060E0F3
:100AE20070E080E090E804C06FEF7FEF8FEF9FE748
:100AF20022E230E02093C72C3093C82C09C0222375
:100B020081F090958095709561957F4F8F4F9F4FA3
:100B1200462F372F282F12C040E030E020E090E02F
:100B22000DC097FFF5CF82E290E08093C72C90939F
:100B3200C82C6FEF7FEF8FEF9FE7EACF642F732F01
:0C0B4200822FCDB7DEB7E1E10C94AA2CA5
:100B4E004F925F926F927F928F929F92AF92BF92CF
:100B5E00FF920F931F93CF93DF9300D000D0CDB7AA
:100B6E00DEB7F82EB62E29013A0120E030E0A901B9
:100B7E006CE070E0CB010E94A01E20E030E0A901E5
:100B8E006CE870E180E090E00E94A01E20E030E072
:100B9E00A9016CEA77E082E090E00E94A01E21E0BD
:100BAE0030E040E050E068E171E180E090E00E94CA
:100BBE00511D8111BFC020E034E040E050E060E004
:100BCE0074E180E090E00E94511D8111B5C064E196
:100BDE0070E180E090E00E944E289923C4F76CEB00
:100BEE0077E082E090E00E944E2860FD19C00FEC85
:100BFE0017E061E070E080E090E00E948F2B6CE0E7
:100C0E0070E0CB010E944E286E39704D8D4A904196
:100C1E0021F00150110968F703C0012B09F48EC0B1
:100C2E00FF2079F02DE735ED4CE15CE36CEA77E0DF
:100C3E0082E090E00E94A01E812C912C540193948E
:100C4E000DC0BB2039F0812C912C5401689487F88B
:100C5E00939404C0812C912C54019394A30192017E
:100C6E006CE870E180E090E00E94A01E0E94D30D1F
:100C7E00DC01CB019F70AA27BB27803A9340A105C8
:100C8E00B10510F0689481F8A501940160EA74E151
:100C9E0080E090E00E94A01EAE014F5F5F4F60EAC1
:100CAE0074E180E090E00E941C2E811109C08981C0
:100CBE009A81AB81BC8188169906AA06BB0621F7DC
:100CCE0021E63FE242E55FEE6CE070E0CB010E9470
:100CDE00A01E00ED17E062E070E080E090E00E9460
:100CEE008F2BF11017C06CE870E180E090E00E944D
:100CFE004E286633764283459240B9F420E030E0C8
:100D0E00A9016CE870E180E090E00E94A01E0E94B4
:100D1E00FC2A17C06CEA77E082E090E00E944E2831
:100D2E00633C714C8D45974D59F00150110999F660
:100D3E0080E007C080E005C080E003C080E001C015
:100D4E0081E02496CDBFDEBFDF91CF911F910F9131
:100D5E00FF90BF90AF909F908F907F906F905F901D
:040D6E004F90089505
:100D7200BF92CF92DF92EF92FF920F931F93CF9386
:100D8200DF93CDB7DEB72597CDBFDEBF6B017C0108
:100D9200890160E070E08DE090E00E940A0FB82EB9
:100DA2008111C8C00E9442197C2D6627552744270D
:100DB2008F2D9927AA27BB27842B952BA62BB72BE0
:100DC2008260B701A601442766277727762F652F11
:100DD200542F4427842B952BA62BB72BCC24DD2410
:100DE200FF24CD2CDE2CEF2CFF24C82AD92AEA2A94
:100DF200FB2A20E030E0A90168E072E081E090E0A7
:100E02000E94A01EA70196016CE072E081E090E0D2
:100E12000E94A01E2FE030E040E050E064E172E06A
:100E220081E090E00E94A01E20E030E04DE050E022
:100E32006CE172E081E090E00E94A01EC801A0E097
:100E4200B0E0BA2FA92F982F88279C01AD01246802
:100E520064E072E081E090E00E94A01EAE014E5F6D
:100E62005F4F68E172E081E090E00E941C2E8111E8
:100E720008C08A819B81AC81BD810197A105B10522
:100E820069F70E94EF31CE0101960E945214CE0101
:100E920001960E945214811103C0898180FDF7CF0F
:100EA20020E030E0A90168E072E081E090E00E9479
:100EB200A01E24E030E040E050E06CE072E081E00F
:100EC20090E00E94A01E21E030E040E050E064E1AA
:100ED20072E081E090E00E94A01E20E030E0A901D3
:100EE2006CE172E081E090E00E94A01E21E830E017
:100EF20040E050E064E072E081E090E00E94A01ED9
:100F0200AE014E5F5F4F68E172E081E090E00E94C7
:100F12001C2E811108C08A819B81AC81BD81019701
:100F2200A105B10569F70E94EF310E94EF318823D4
:100F320051F005C00F2EF4EFBF2EF02D04C00F2E7E
:100F4200F4EFBF2EF02D8B2D2596CDBFDEBFDF91A6
:100F5200CF911F910F91FF90EF90DF90CF90BF90B4
:020F62000895F0
:100F6400A0E0B0E0E8EBF7E00C94612C5C016B01CD
:100F74007A016115710519F0FB0180839183E114F5
:100F8400F10429F0C7010297839708F0C9C0E5016D
:100F94002196F5011081812F90E00E94BA30892BAF
:100FA40011F05E01F4CF1D3229F42196F50111816F
:100FB40001E007C01B3221F4E5012296F5011181FD
:100FC40000E0E114F104B1F0F0E1EF16F10429F4CA
:100FD400B0C010E3E114F10401F12AE0E216F104D7
:100FE400B1F180E1E816F10471F0E8E0EE16F104E5
:100FF400F1F413C0103341F588818F7D883549F7AA
:10100400198122960260F0E1EF2EF12C88248A9453
:10101400982CA82CAFE0BA2E20C078E0E72EF12C53
:1010240088248A94982CA82CEFE1BE2E16C06FEF6A
:101034007FEFCB0197010F2C000C440B550B0E9442
:101044009A2949015A0109C08AE0E82EF12C69E97C
:10105400862E982CA82C69E1B62E40E060E070E062
:10106400CB0127010F2C000C66087708FE0150ED18
:10107400352E310E29E0231570F42FEB210F2A3180
:1010840018F439EC332E06C02FE9210F2A3130F53C
:1010940029EA322E310E232D30E02E153F05F4F4CB
:1010A4004F3FC9F086169706A806B90688F0A30133
:1010B40092010E94932E232D30E040E050E0620F15
:1010C400731F841F951F621773078407950710F415
:1010D4004FEF01C041E021961081C8CFC114D10463
:1010E40051F0442311F0219703C001FF04C022975B
:1010F400F601C083D18300FF07C090958095709559
:1011040061957F4F8F4F9F4F4F3F79F482E290E07C
:101114008093C72C9093C82C3FEF2FEF9FEF0DC007
:1011240040E030E020E090E008C0462F372F282F21
:1011340004C0103309F067CF5FCF642F732F822F61
:0A114400CDB7DEB7E1E10C94AA2C50
:10114E002F923F924F925F926F927F928F929F92C9
:10115E00AF92BF92CF92DF92EF92FF920F931F93B7
:10116E00CF93DF9300D0CDB7DEB719821A828330CA
:10117E0008F090C0823021F46031710508F08CC007
:10118E000115110509F48AC02115310509F488C02D
:10119E00F801E42BF52BE370FF27EF2B09F082C04B
:1011AE00680129015A011B01F82EAE014F5F5F4FF6
:1011BE000E94BC14811198C029813A81C8018A0D00
:1011CE009B1D2817390708F46FC035017694679474
:1011DE0076946794769467947694679476946794ED
:1011EE008FE1A822BB24B694A794B694A794812C21
:1011FE00912CA114B10409F5C6018819990980979B
:10120E00E0F0F11005C082E06816710409F45EC0CA
:10121E006894EE24E5F88201080D191D20E0462D94
:10122E00B1018F2D0E945E1E81115EC080E2880E7C
:10123E00911C8FEF681A780A27C0F11008C082E05F
:10124E006816710421F485E0A816B10479F168944A
:10125E00EE24E2F88201080D191D2A2D462DB1014A
:10126E008F2D0E945E1E81113FC084E0880E911C5E
:10127E008FEFA81AB80A88E0A816B10429F48FEFE8
:10128E00681A780AA12CB12C8C149D0408F4B1CFE5
:10129E0080E02AC082EE28C082EE26C080E024C004
:1012AE0082EE22C082EE20C082EE1EC084E0880E46
:1012BE00911C0F2EF6E0AF2EB12CF02DE5CF84E071
:1012CE00880E911C8FEFA81AB80ADECF6894EE2410
:1012DE00E2F88201080D191D2A2D462DB1018F2D20
:1012EE000E945E1E882359F30F900F90DF91CF91CD
:1012FE001F910F91FF90EF90DF90CF90BF90AF9026
:10130E009F908F907F906F905F904F903F902F9017
:02131E00089530
:101320002F923F924F925F926F927F928F929F92F5
:10133000AF92BF92CF92DF92EF92FF920F931F93E3
:10134000CF93DF93CDB7DEB7A597CDBFDEBF1982B0
:101350001A82833008F0A1C0823021F46031710517
:1013600008F09DC00115110509F49BC02115310538
:1013700009F499C0680119012A016CA37DA38BA30C
:10138000AE014F5F5F4F0E94BC1481118FC0298155
:101390003A81C801840D951D2817390708F485C0C6
:1013A00032017694679476946794769467947694F1
:1013B0006794769467946894FF24F5F8812C912CB7
:1013C000A12CB12C80E2F8121CC089819A81930172
:1013D000220F331F22953295307F3227207F32270C
:1013E000821B930B809768F442018A0C9B1C969495
:1013F00087949694879497E0892299246894FF248F
:10140000F2F8EF2C8E010D5F1F4F282D462D6CA199
:101410007DA18BA10E94A112811148C0C301880F38
:10142000991F880F991F880F991F880D991D880F84
:10143000991F880F991F8415950520F4B201681B28
:10144000790B02C060E070E08F2D90E0861B970B57
:1014500086010A191B098017910708F48C0183E0A3
:1014600090E08C0F9D1F680F791FA801C1018A0DA4
:101470009B1D0E94C330A00EB11E90E2F91204C061
:101480008FEF681A780A03C09FEF891A990AAC1483
:10149000BD0408F497CF80E009C082EE07C082EE59
:1014A00005C080E003C082EE01C082EEA596CDBFEC
:1014B000DEBFDF91CF911F910F91FF90EF90DF90F2
:1014C000CF90BF90AF909F908F907F906F905F90E4
:0814D0004F903F902F9008950A
:1014D8004F925F926F927F928F929F92AF92BF923C
:1014E800CF92DF92EF92FF92CF93DF93CDB7DEB723
:1014F8002597CDBFDEBF6B017C014B015C01820EDD
:10150800931EA41EB51E681579058A059B0508F06B
:101518008CC00E94421981118AC0CE0101960E9496
:101528005214811186C07C2C6624552444248F2DA6
:101538009927AA27BB27482A592A6A2A7B2A689406
:1015480045F8D701C6018827AA27BB27BA2FA92F94
:10155800982F8827482A592A6A2A7B2AD701C60140
:1015680088279927BB27892F9A2FAB2FBB27482A73
:10157800592A6A2A7B2A20E030E0A90168E072E053
:1015880081E090E00E94A01EA30192016CE072E04D
:1015980081E090E00E94A01E2FE030E040E050E0A3
:1015A80064E172E081E090E00E94A01E20E030E05B
:1015B800A9016CE172E081E090E00E94A01E24E89D
:1015C80030E040E050E064E072E081E090E00E94AA
:1015D800A01EAE014E5F5F4F68E172E081E090E0CF
:1015E8000E941C2E811108C08A819B81AC81BD811B
:1015F8000197A105B10569F70E94EF31882309F128
:101608001EC0CE0101960E945214811114C0998106
:1016180090FDF7CF90E1D90EE11CF11CC814D90454
:10162800EA04FB0408F475CF13C080E011C084EF0E
:101638000FC084EF0DC084EF0BC084EF09C084EFA6
:1016480007C0CE0101960E9452148111F6CFD9CF5E
:101658002596CDBFDEBFDF91CF91FF90EF90DF9051
:10166800CF90BF90AF909F908F907F906F905F903A
:041678004F900895F2
:10167C000F931F93CF93DF93CDB7DEB72897CDBFD2
:10168C00DEBF182F0E94D30DDC01CB019F70AA275F
:10169C00BB27803A9340A105B10508F48BC0AE017D
:1016AC004B5F5F4F60E174E180E090E00E941C2E84
:1016BC00082F811181C08D819E81AF81B8859F7863
:1016CC00A878B87F9C01AD013061416151602D83D8
:1016DC003E834F83588760E174E180E090E00E9484
:1016EC00A01E20E030E0A90168E072E081E090E00B
:1016FC000E94A01E112359F02BEA30E040E050E08C
:10170C006CE072E081E090E00E94A01E0AC029EB20
:10171C0030E040E050E06CE072E081E090E00E944C
:10172C00A01E21E030E040E050E064E172E081E096
:10173C0090E00E94A01E20E030E0A9016CE172E074
:10174C0081E090E00E94A01E21E830E040E050E0F3
:10175C0064E072E081E090E00E94A01E0E94EF31F4
:10176C0081112CC0AE014F5F5F4F68E172E081E0E8
:10177C0090E00E941C2E811108C089819A81AB8156
:10178C00BC810197A105B10569F78D819E81AF815F
:10179C00B8859F78A878B87F9C01AD0141602D83F6
:1017AC003E834F83588760E174E180E090E00E94B3
:1017BC00A01E05C000E003C004EF01C004EF802FA1
:1017CC002896CDBFDEBFDF91CF911F910F91089569
:1017DC004F925F926F927F928F929F92AF92BF9235
:1017EC00EF92FF920F931F93CF93DF9300D000D013
:1017FC00CDB7DEB77C0148015901742E66245524FF
:10180C004424872F9927AA27BB27482A592A6A2AB2
:10181C007B2A8BE0482ADB01CA018827AA27BB2731
:10182C00BA2FA92F982F8827482A592A6A2A7B2A47
:10183C00442755277727452F562F672F7727442A7C
:10184C00552A662A772AA901980168E072E081E09E
:10185C0090E00E94A01EA30192016CE072E081E076
:10186C0090E00E94A01E25EA30E040E050E060E1EC
:10187C0072E081E090E00E94A01E2FE130E040E099
:10188C0050E064E172E081E090E00E94A01E20E054
:10189C0030E04DE050E06CE172E081E090E00E94BD
:1018AC00A01E25E830E040E050E064E072E081E00A
:1018BC0090E00E94A01EAE014F5F5F4F68E172E0A6
:1018CC0081E090E00E941C2E811108C089819A81D0
:1018DC00AB81BC810197A105B10569F70E94EF317D
:1018EC00882319F00DC084EF0CC09401A70160E0AF
:1018FC0070E08DE090E00E943B16882311F0F3CF4E
:10190C0084EF2496CDBFDEBFDF91CF911F910F9155
:10191C00FF90EF90BF90AF909F908F907F906F90C3
:06192C005F904F9008954A
:10193200BF92CF92DF92EF92FF920F931F93CF93BA
:10194200DF93CDB7DEB7AD97CDBFDEBF823008F0F3
:1019520076C07901B52E042F6B01182FB901842F9F
:10196200952F0E94EE2E882309F46CC0112349F0B2
:10197200F6016081718189EE9BE60E9476248823BC
:10198200B9F088EF9BE69F938F938EEF9BE69F9330
:101992008F9384E08F931F92BF920F930E943D26F4
:1019A200F70180839183CDBFDEBF80E090E051C01C
:1019B200F6016081718183E09CE60E94762488238F
:1019C200B9F08CE09CE69F938F938EEF9BE69F93FA
:1019D2008F9384E08F931F92BF920F930E943D26B4
:1019E200F70180839183CDBFDEBF80E090E031C0FC
:1019F200F6016081718182E19CE60E94762488234F
:101A020021F1CE0101960E9463206C01009701F53D
:101A1200CE0101969F938F938EEF9BE69F938F93B8
:101A220084E08F931F92BF920F930E943D26F7018D
:101A320080839183CDBFDEBF8C2D9D2D0AC083E0B4
:101A420090E007C085E090E004C085E090E001C02E
:101A52009D2DAD96CDBFDEBFDF91CF911F910F912E
:0C1A6200FF90EF90DF90CF90BF900895B0
:101A6E000F931F93CF93DF930E94672340E054E0C0
:101A7E0082EDFA01808320E234E0F901108280E4E5
:101A8E0094E0FC011082C0E6D4E01882A0E8B4E035
:101A9E001C9200EA14E069E1F801608360E8FA0143
:101AAE006483F9011482FC0114821C8214961C9228
:101ABE00149761E0F8016483FA01108A118A128A80
:101ACE00138A148A68E0658B168A178AF901108AC0
:101ADE00118A128A138A148A158A168A178AFC01A9
:101AEE00108A118A128A138A148A158A168A178AFC
:101AFE00188A198A1A8A1B8A1C8A1D8A1E8A1F8AAC
:101B0E0050961C92509751961C92519752961C9239
:101B1E00529753961C92539754961C9254975596DF
:101B2E001C92559756961C92569757961C92F801F2
:101B3E00108A618B8BE0828B138A148A158A168A1F
:101B4E00178AE0EEF5E0118210821482158213825C
:101B5E0012828DE092E38093602D9093612D8EE042
:101B6E0092E380935E2D90935F2D8FE092E38093AE
:101B7E005C2D90935D2D80E192E380935A2D90938E
:101B8E005B2D81E192E38093582D9093592DDF9137
:081B9E00CF911F910F910895F2
:101BA600CF92DF92EF92FF92CF93DF9300D000D0D7
:101BB600CDB7DEB7C0904C2DD0904D2DE0904E2D78
:101BC600F0904F2DC114D104E104F10409F078C05E
:101BD600AE014F5F5F4F64EF73E180E090E00E94DB
:101BE6001C2E81116DC04CE45DE260E070E180E086
:101BF60090E00E941C2E811163C080914C2D909123
:101C06004D2DA0914E2DB0914F2D803A22E0920796
:101C160020E1A207B105A9F489819A81AB81BC8133
:101C26000197A105B105C1F181EA92E0A0E1B0E01A
:101C360080934C2D90934D2DA0934E2DB0934F2D08
:101C46002BC0803B9240A041B10531F589819A8134
:101C5600AB81BC8183309105A105B105E9F00497FC
:101C6600A105B10569F481EB92E0A0E1B0E08093B3
:101C76004C2D90934D2DA0934E2DB0934F2D0CC00F
:101C860082EB92E0A0E1B0E080934C2D90934D2D35
:101C9600A0934E2DB0934F2DC0904C2DD0904D2D2E
:101CA600E0904E2DF0904F2D80EFE82225E0E22ABD
:101CB600C0924C2DD0924D2DE0924E2DF0924F2D8C
:101CC600C701B6012496CDBFDEBFDF91CF91FF904D
:081CD600EF90DF90CF9008951C
:101CDE00AF92BF92CF92DF92EF92FF920F931F932C
:101CEE00CF93DF93CDB7DEB72697CDBFDEBF182FCC
:101CFE005B016A01790119821A821B821C82B90169
:101D0E00CA010E94EE2E882309F44FC08FEF810F77
:101D1E00823008F04DC0A114B10409F44CC0BE01CC
:101D2E006F5F7F4FF501808191810E94EE2C0097AD
:101D3E0009F046C0123068F0BE016D5F7F4FF501AD
:101D4E00828193810E947628811117C085E090E0F0
:101D5E0037C069817A81AE014B5F5F4F82E00E948E
:101D6E00BC142D813E812B833C83882331F090E07F
:101D7E009160F7011082118238C00B811C81011510
:101D8E001105E1F021C0A601B5018B819C810E9455
:101D9E009821F7018083918380E090E026C0F701BF
:101DAE001082118290E0916020C085E090E01DC00D
:101DBE0083E090E005C085E090E002C085E090E011
:101DCE00F7011082118211C0F701108211825601A3
:101DDE00A00EB11E69817A81950140E050E082E04B
:101DEE000E9490098111DBCFCECF2696CDBFDEBFEC
:101DFE00DF91CF911F910F91FF90EF90DF90CF90D9
:061E0E00BF90AF900895A3
:101E14007F928F929F92AF92BF92CF92DF92EF9276
:101E2400FF920F931F93CF93DF93CDB7DEB728971D
:101E3400CDBFDEBF6A018901FE01319697E0DF0163
:101E44001D929A95E9F797EC998390916E2D9111D3
:101E540049C091E090936E2D2130310511F402E0D8
:101E640010E08A837B836C831E830F8367E0CE013B
:101E740001960E946D2DB82E811137C081EF88879D
:101E840001151105D9F1712C6894882485F80F2E59
:101E9400F3EF9F2EF02D0F2EF2EFAF2EF02D7801E1
:101EA4000130B0E21B0710F0E72CF82C0E191F09C3
:101EB40009F4988661E070E0CE0108960E949C18AF
:101EC4008823C9F0B701C6010E949C18882399F0A1
:101ED400A886CE0CDF1C0115110509F70FC010925E
:101EE4006E2D12C0BB24B3940FC0BB24B3940CC09A
:101EF400BB24B39409C0BB24B39406C083EC0E94F2
:101F04004124882361F3F4CF8B2D2896CDBFDEBF07
:101F1400DF91CF911F910F91FF90EF90DF90CF90C1
:0C1F2400BF90AF909F908F907F90089529
:101F3000AF92BF92CF92DF92EF92FF920F931F93D7
:101F4000CF93DF9300D000D0CDB7DEB7182F5B0161
:101F50006A01790119821A82B901CA010E94EE2E22
:101F6000882309F442C0123008F053C0A114B10410
:101F700009F452C0112369F0BE016F5F7F4FF50174
:101F8000808191810E947628811117C085E090E0C0
:101F900048C0AE014D5F5F4F60E070E081E00E949D
:101FA000BC142B813C8129833A83882331F090E053
:101FB0009160F7011082118237C009811A810115E1
:101FC000110569F115C0A601B50189819A810E94A8
:101FD0009821F7018083918380E090E025C0F7018C
:101FE0001082118290E091601FC085E090E01CC0DB
:101FF000F701108211825601A00EB11E950140E03A
:1020000050E060E070E081E00E9490098111E7CF2C
:10201000DACF83E090E005C085E090E002C085E083
:1020200090E0F701108211822496CDBFDEBFDF91D0
:10203000CF911F910F91FF90EF90DF90CF90BF90C5
:04204000AF900895C0
:102044004D432B41424F5554004D432B424C4F427C
:1020540054455354004D432B50494E47004D432B98
:102064004543432B47454E5055424B4559004D433C
:102074002B4543432B4C4F434B004D432B4543438C
:102084002B4F54502B52454144004D432B45434361
:102094002B52454144004D432B4543432B5055425D
:1020A4004B45592B52454144004D432B4543432B4B
:1020B40053455249414C004D432B4543432B53490F
:1020C400474E444947455354004D432B4543432B06
:1020D4005752495445424C4F42004D432B454343CC
:1020E4002B5055424B45592B5752495445004D43AB
:1020F4002B4745544C4544004D432B4C49535443C2
:102104004F4D4D414E4453004D432B52455345547E
:10211400004D432B5345544C4544004D432B5645E9
:102124005253494F4E004D432B57494E432B455272
:10213400415345004D432B57494E432B524541448F
:10214400004D432B57494E432B5752495445424C5B
:032154004F4200F7
:012157000186
:10215800AF92BF92DF92EF92FF920F931F93CF93AC
:10216800DF9300D000D0CDB7DEB7D82E5B017A015F
:10217800890119821A821B821C82B901CA010E9434
:10218800EE2E882309F443C083E0D81246C0A11478
:10219800B10409F445C0BE016F5F7F4FF50180812E
:1021A80091810E94EE2C009709F042C0BE016D5F3C
:1021B8007F4FF501828193810E947628882399F1C7
:1021C8002B813C812115310589F136C0220F331F3F
:1021D8008217930731F0F8011082118285E090E0B0
:1021E80031C0A701B7010E94951DF8011082118224
:1021F8000B811C8169817A81970140E050E082E07F
:102208000E94A708882331F090E091601BC085E008
:1022180090E018C080E090E015C083E090E008C02E
:1022280085E090E005C085E090E002C085E090E0A0
:10223800F8011082118206C0F8018081918100970F
:1022480051F2C4CF2496CDBFDEBFDF91CF911F914D
:0E2258000F91FF90EF90DF90BF90AF90089530
:102266004F925F926F927F92AF92BF92CF92DF9220
:10227600EF92FF920F931F93CF93DF935C012A0196
:102286003B0168017901011511052105310509F4A4
:1022960050C0DB01CA019927AA27BB270097A105D1
:1022A600B10519F1C0E0D1E0C81BD90BCE01A0E001
:1022B600B0E0081719072A073B0708F4E8019E0152
:1022C600A501C301B2010E94B906811134C0AC0E4A
:1022D600BD1EAE0160E070E0440E551E661E771E00
:1022E600C41AD50AE60AF70A49F100E011E08FEFB1
:1022F600C816D104E104F10409F010F4E60102C0A5
:10230600C02FD12F9E01A501C301B2010E94B906BB
:10231600811113C0AC0EBD1EAE0160E070E0440E2C
:10232600551E661E771EC41AD50AE60AF70AF9F67E
:1023360005C084EF03C084EF01C084EFDF91CF9125
:102346001F910F91FF90EF90DF90CF90BF90AF90CD
:0A2356007F906F905F904F90089504
:10236000AF92BF92CF92DF92EF92FF921F93CF93E3
:10237000DF9300D0CDB7DEB76C017B01DB016D913F
:102380007C91FC0182810E949516811157C0D70172
:10239000ED91FC911197A280B38012968D919C9142
:1023A00013970E94432D182F811142C0F6014181DD
:1023B00050E0B601D70112968D919C9113970E941F
:1023C0001331182F811134C0B50180E090E00E94D4
:1023D0002E2EB6E0CB0ED11C80ECF60111928A9520
:1023E000E9F780EC90E089839A83AE014F5F5F4FFD
:1023F000B601D70112968D919C9113970E941A31C4
:10240000182F811115C089819A818430910520F49B
:10241000892B69F417EE0CC0C6010E94DE24182F28
:10242000811106C0C6010E94DB25182F01C016EEDF
:10243000F701828193810E943F2E812F0F900F9090
:10244000DF91CF911F91FF90EF90DF90CF90BF90E1
:04245000AF900895AC
:102454008F929F92BF92CF92DF92EF92FF920F934F
:102464001F93CF93DF93CDB7DEB72697CDBFDEBFE3
:10247400B82E4B016A01790119821A821B821C82CF
:102484001D821E82B901CA010E94EE2E882309F41E
:1024940042C08E010B5F1F4F9E012F5F3F4F43E0F1
:1024A400B4018B2D0E940B24009721F0F7011082B8
:1024B400118236C0F70180819181009739F02D8116
:1024C4003E81220F331F8217930731F0F7011082E8
:1024D400118285E090E024C0A601B6010E94951DFA
:1024E400F7011082118281E00E9444250D811E8132
:1024F40020E030E049815A816B817C81C6010E94D1
:102504003311182F80E00E944425112339F0812FC4
:1025140090E0926005C085E090E002C080E090E029
:102524002696CDBFDEBFDF91CF911F910F91FF9013
:0E253400EF90DF90CF90BF909F908F90089512
:10254200AF92BF92CF92DF92EF92FF920F931F93BF
:10255200CF93DF93CDB7DEB7C95CD109CDBFDEBF64
:10256200F82E6801012BB1F1E091522DF091532D1B
:10257200A080B18084E0E816D9F180E2E8122CC094
:102582002EC08F2D8068F82EFC82C853DF4F8881C1
:102592009981C85CD0408D839E83BE016F5F7F4F5F
:1025A200C5010E945A3081112BC06091522D709149
:1025B200532DCE0101960E94B011182F81110EC029
:1025C2004E2D50E0BE01685F7F4FC6010E94C330AE
:1025D200812F16C082EE14C082EE12C011C08E018D
:1025E20008531F4F8F2D0E946D26811109C0C9CF3C
:1025F2008E0108531F4F8F2D0E946D26882321F2D2
:10260200C753DF4FCDBFDEBFDF91CF911F910F9137
:0E261200FF90EF90DF90CF90BF90AF900895B3
:10262000AF92BF92CF92DF92EF920F931F93CF930F
:10263000DF93CDB7DEB7A097CDBFDEBF61157105C3
:1026400009F44AC09C01285031092830310508F0AE
:1026500045C06B015C016894EE24E5F88E010F5FC4
:102660001F4F20E040E0BC0182E00E94A1128111D6
:1026700036C08CE1FE013596D60101900D928A9507
:10268000E1F720E041E0B50182E00E94A112811152
:1026900026C089819A81F601848F958F8B819C81D8
:1026A000868F978F88E1FE013996D601909601902A
:1026B0000D928A95E1F720E042E0B50182E00E94A8
:1026C000A11281110CC0D601D89698E0F8010190B2
:1026D0000D929A95E1F703C082EE01C082EEA096BA
:1026E000CDBFDEBFDF91CF911F910F91EF90DF90B3
:0826F000CF90BF90AF90089558
:1026F8008F929F92BF92CF92DF92EF92FF920F93A9
:102708001F93CF93DF93CDB7DEB72697CDBFDEBF3C
:10271800B82E4B016A01790119821A821B821C8228
:102728001D821E82B901CA010E94EE2E8823D9F1AA
:102738008E010B5F1F4F9E012F5F3F4F42E0B40198
:102748008B2D0E940B24F70110821182009769F5E6
:102758008D809E808C0C9D1C81E00E9444250D81FB
:102768001E8120E030E049815A816B817C81C4015F
:102778000E947F1C182F80E00E944425112339F005
:10278800F70110821182812F90E092600EC0A6019D
:10279800B4018D819E810E949821F70180839183E5
:1027A80080E090E002C085E090E02696CDBFDEBFD5
:1027B800DF91CF911F910F91FF90EF90DF90CF9015
:0827C800BF909F908F900895CF
:1027D000EF92FF920F931F93CF93DF93CDB7DEB7A6
:1027E000C75CD109CDBFDEBFA091522DB091532D52
:1027F000ED90FC90982F93708C836D837E83923044
:1028000048F484E1FA01DE01179601900D928A9551
:10281000E1F715C09330B1F585FF09C080E4FA01F6
:10282000DE01179601900D928A95E1F708C080E2CB
:10283000FA01DE01179601900D928A95E1F7890160
:10284000BE016F5F7F4FC7010E94C62B81111FC061
:102850006091522D7091532DCE0101960E94B011BE
:10286000811115C00115110579F08F81833270F047
:1028700080E2FE013896D80101900D928A95E1F729
:1028800080E005C082EE03C080E001C080E0C95353
:10289000DF4FCDBFDEBFDF91CF911F910F91FF9032
:0428A000EF90089518
:1028A4000F931F93CF93DF9300D000D0CDB7DEB743
:1028B4008C0124E030E040E050E068E072E081E028
:1028C40090E00E94A01E25E030E040E050E06CE083
:1028D40072E081E090E00E94A01E21E030E040E040
:1028E40050E064E172E081E090E00E94A01E24E8E0
:1028F40030E140E050E06CE172E081E090E00E9461
:10290400A01E21E830E040E050E064E072E081E0A5
:1029140090E00E94A01EAE014F5F5F4F68E172E03D
:1029240081E090E00E941C2E811108C089819A8167
:10293400AB81BC810197A105B10569F764E870E139
:1029440080E090E00E944E2869837A838B839C8385
:102954000E94EF31811105C08981F801808380E0F4
:1029640001C084EF2496CDBFDEBFDF91CF911F91CC
:042974000F91089522
:102978004115510509F45AC0E091522DF091532D9B
:102988000280F381E02D0180F281E02D9181911187
:102998001BC0813059F018F0823079F049C088E5C1
:1029A80090E0FA018083918380E0089580E490E0CC
:1029B800FA018083918380E0089580E290E0FA0133
:1029C8008083918380E00895813059F018F0823037
:1029D80079F030C080E890E0FA018083918380E04C
:1029E800089580E490E0FA018083918380E008955F
:1029F8006830710538F484E290E0FA0180839183AD
:102A080080E008956830710539F480EA91E0FA01B0
:102A18008083918380E008956031710568F488E4CB
:102A280090E0FA018083918380E0089582EE089512
:0C2A380082EE089582EE089582EE08956B
:102A4400FF920F931F93CF93DF93CDB7DEB72C97ED
:102A5400CDBFDEBF6115710509F440C08B01F82EAE
:102A640086E2FB0111928A95E9F7AE01475F5F4F59
:102A740068E070E08CE090E00E941C2E811134C06C
:102A840089859A85AB85BC850097A105B10561F15F
:102A9400BC01CD01836028E030E0AE014F5F5F4FA1
:102AA4000E943B16811120C08D819E81AF81B88523
:102AB400AA27BB270097A105B10591F0F11003C027
:102AC40080E090E0DC01BC01CD01836026E230E0CF
:102AD400A8010E943B16882341F004C081EF05C081
:102AE40084EF03C084EF01C084EF2C96CDBFDEBF1A
:0C2AF400DF91CF911F910F91FF9008958A
:102B0000FA01AA27283051F1203181F1E8946F931E
:102B10006E7F6E5F7F4F8F4F9F4FAF4FB1E03ED0C4
:102B2000B4E03CD0670F781F891F9A1FA11D680F62
:102B3000791F8A1F911DA11D6A0F711D811D911D95
:102B4000A11D20D009F468943F912AE0269F11240A
:102B50003019305D3193DEF6CF010895462F47706E
:102B6000405D4193B3E00FD0C9F7F6CF462F4F70C9
:102B7000405D4A3318F0495D31FD4052419302D027
:102B8000A9F7EACFB4E0A6959795879577956795CD
:102B9000BA95C9F700976105710508959B01AC01CD
:102BA0000A2E06945795479537952795BA95C9F7F4
:0C2BB000620F731F841F951FA01D089565
:102BBC0057494E43206669726D77617265202564B2
:102BCC002E25642E25640D0A57494E4320647269E4
:102BDC007665722025642E25642E256400434F4DA6
:102BEC004D414E4448414E444C455200312E332EFB
:102BFC00300025730D0A004649524D57415245008D
:102C0C00302E342E320057494E43004156522D4936
:102C1C006F54205747004156522D496F5420707203
:102C2C006F766973696F6E696E67204657002573FE
:102C3C000D0A46572025730D0A25730D0A436F6D37
:102C4C006D616E642068616E646C65722025730D15
:102C5C000A666F72207468652025730D0A004D4357
:092C6C002B504F4E473D2573002B
:102C7600EF92FF920F931F93CF93DF93CDB7DEB7FB
:102C86002997CDBFDEBFFE01339697E0DF011D9287
:102C96009A95E9F798EC9B8390916E2D911131C02E
:102CA60089017A0191E090936E2D8C837D836E83EA
:102CB6002130310549F482E0898767E0CF010E941F
:102CC6006D2D882359F01FC01887298767E0CE012C
:102CD60003960E946D2D882359F017C062E070E0BC
:102CE600CE0101960E949E239981F701908304C02C
:102CF600B801C7010E949E23811109C010926E2D52
:102D060007C081E005C081E003C081E001C081E029
:102D16002996CDBFDEBFDF91CF911F910F91FF9016
:042D2600EF9008958D
:102D2A00CF93DF93EB019881913009F43FC090F083
:102D3A00923019F0933029F033C054E1ECEBF5E905
:102D4A0040C099819832B1F19836C1F156E1EEE36B
:102D5A00F4E937C02FEF3FEF2A833B835EE0ECE5CF
:102D6A00FAE99081891311C008C0F9012D5F3F4F1C
:102D7A00D90113974C9148130CC0818192818A839F
:102D8A009B83019659F482EF21C09F012D5F3F4F2B
:102D9A0090E09F5F951748F382EF18C080E016C055
:102DAA008FEF9FEF8A839B8382EF10C053E1E4EE9B
:102DBA00F6E907C056E1ECEFF3E903C056E1EAEBA6
:102DCA00F3E92FEF3FEF2A833B83CBCFDF91CF91FC
:022DDA0008955A
:102DDC00AF92BF92DF92EF92FF920F931F93CF931C
:102DEC00DF9300D0CDB7DEB7D82E5B017A01890115
:102DFC0019821A82B901CA010E94EE2E882361F150
:102E0C00F80110821182F1E0FD1548F1DF120BC0C0
:102E1C00BE016F5F7F4FF501808191810E94EE2C86
:102E2C00009711F502C019821A825701F0E4AF0E17
:102E3C00B11CB50189819A810E94CC30811112C0DC
:102E4C00A701B50180E490E00E949821F8018083ED
:102E5C00918380E090E008C085E090E005C083E0BD
:102E6C0090E002C090E091600F900F90DF91CF91B5
:102E7C001F910F91FF90EF90DF90BF90AF9008954E
:102E8C00AF92BF92DF92EF92FF920F931F93CF936B
:102E9C00DF9300D0CDB7DEB7D82E5B017A01890164
:102EAC0019821A82B901CA010E94EE2E882359F1A7
:102EBC00F801808191818038910529F0108211826E
:102ECC0085E090E028C0F80110821182F2E0DF1258
:102EDC001DC0BE016F5F7F4FF501808191810E9403
:102EEC00EE2C0097C1F4A701B70180E890E00E9496
:102EFC00951DB70189819A810E944818882349F051
:102F0C0090E0916008C085E090E005C083E090E01F
:102F1C0002C080E090E00F900F90DF91CF911F9155
:0E2F2C000F91FF90EF90DF90BF90AF9008954F
:102F3A000F931F93CF93DF93813009F048C0E901C3
:102F4A00052F142FFB01808191810E94A9258823D6
:102F5A0011F090E03EC080916404E091AA2CF091B7
:102F6A00AB2C928189239817C9F081818F93808134
:102F7A008F9389EC94E99F938F9384E08F931F92A8
:102F8A000F931F930E943D26888399838DB79EB71E
:102F9A0008968DBF9EBF80E090E01BC081818F9311
:102FAA0080818F9388ED94E99F938F9384E08F9328
:102FBA001F920F931F930E943D26888399838DB792
:102FCA009EB708968DBF9EBF80E090E002C083E066
:0C2FDA0090E0DF91CF911F910F910895BE
:102FE6000F931F93CF93DF93CDB7DEB7C75CD1099D
:102FF600CDBFDEBF41155105F1F1E091522DF091A3
:10300600532D008111818C836D837E838823ACF4DC
:1030160080E2FA01DE01179601900D928A95E1F79A
:1030260021153105A9F080E2F901DE01979601909C
:103036000D928A95E1F741E00CC0FA0180819181F9
:103046008F8398878281938189879A8740E001C020
:1030560040E04170BE016F5F7F4FC8010E94C12CE6
:1030660081110AC06091522D7091532DCE010196A7
:103076000E94B01101C082EEC953DF4FCDBFDEBF43
:0A308600DF91CF911F910F91089583
:10309000AF92BF92CF92DF92EF92FF920F931F9366
:1030A000CF93DF93CDB7DEB7C056D109CDBFDEBF1A
:1030B0006115710589F15C019E012F5F3F4F80E62C
:1030C000F90111928A95E9F780E2FB01DE0115967C
:1030D00001900D928A95E1F7FB01B09680E2DE0146
:1030E000999601900D928A95E1F76901F12C689407
:1030F000EE24E5F8860120E04F2DB50182E00E9424
:103100005E1E81110AC0F394F0E2CF0ED11C83E061
:10311000F812EDCF80E001C082EEC05ADF4FCDBF84
:10312000DEBFDF91CF911F910F91FF90EF90DF9065
:08313000CF90BF90AF9008950D
:10313800AF92BF92CF92DF92EF92FF920F931F93BD
:10314800CF93DF935C016B01892BC9F1E091F2A069
:10315800F091F3A0099580E88093060480E8C816EA
:10316800D104F0F08601E501E090F8A0F090F9A014
:1031780060E870E0CE01F701099500581109C058C0
:10318800DF4F00381105A0F7B6016F777727C60122
:1031980080589109807880589F4FA80EB91E01C0A9
:1031A800B601C0EFD0EAE885F985C501099580E840
:1031B80080930504E881F981099581E001C080E0E8
:1031C800DF91CF911F910F91FF90EF90DF90CF90FB
:0631D800BF90AF900895C6
:1031DE00AF92BF92CF92DF92EF92FF920F931F9317
:1031EE00CF93DF935C016B01892BC9F1E091F2A0C3
:1031FE00F091F3A0099580E88093060480E8C81644
:10320E00D104F0F08601E501E090FAA0F090FBA069
:10321E0060E870E0CE01F701099500581109C05819
:10322E00DF4F00381105A0F7B6016F777727C6017B
:10323E0080589109807880589F4FA80EB91E01C002
:10324E00B601C0EFD0EAEA85FB85C501099580E895
:10325E0080930504E881F981099581E001C080E041
:10326E00DF91CF911F910F91FF90EF90DF90CF9054
:06327E00BF90AF9008951F
:10328400CF93DF9300D000D0CDB7DEB720E030E09D
:10329400A90168E072E081E090E00E94A01E26E0AF
:1032A40030E040E050E06CE072E081E090E00E94A9
:1032B400A01E21E030E040E050E064E172E081E0F3
:1032C40090E00E94A01E20E030E0A9016CE172E0D1
:1032D40081E090E00E94A01E21E830E040E050E050
:1032E40064E072E081E090E00E94A01EAE014F5FB6
:1032F4005F4F68E172E081E090E00E941C2E811132
:1033040008C089819A81AB81BC810197A105B1056F
:1033140069F70E94EF31811184EF2496CDBFDEBF9F
:06332400DF91CF91089536
:10332A00AF92BF92DF92EF92FF920F931F93CF93C8
:10333A00DF9300D0CDB7DEB7D82E5B017A018901C1
:10334A0019821A82B901CA010E94EE2E882339F124
:10335A00F80110821182F1E0DF1224C0BE016F5F12
:10336A007F4FF501808191810E94EE2C0097F9F43C
:10337A005701F0E4AF0EB11CB50189819A810E9410
:10338A001013811112C0A701B50180E490E00E94D8
:10339A009821F8018083918380E090E008C085E05D
:1033AA0090E005C083E090E002C090E091600F9049
:1033BA000F90DF91CF911F910F91FF90EF90DF90C7
:0633CA00BF90AF900895D2
:1033D000E0E1FDE280818E7F808380910C2D9091D1
:1033E0000D2D019719F40E94783102C00E947231AC
:1033F000EDEEFCE2878D90A10197878F90A3892B3A
:1034000071F0A58DB68D8091A8088C93858D968DD1
:103410000196858F968F0E94603184E00895ADEE0D
:10342000BCE25D96ED91FC915E978091A808808347
:103430005D968D919C915E9701965D968D939C9380
:103440005E97E0E1FDE2808188608083ED91FC91F0
:1034500011971C968D919C911D97099582508230F1
:1034600020F40E94783188E008950E944C2F08953E
:103470000F931F93CF93DF93CDB7DEB72897CDBFC0
:10348000DEBF8A016F3F71058105910509F048F49F
:1034900024EC2D8320E82E83982F872F762F662704
:1034A00003C02AEC2D838E837F83688764E0CE017E
:1034B00005960E946D2D81111BC064E070E0CE0165
:1034C00001960E949E23811115C09A814B8150E084
:1034D00060E070E0BA0155274427592B9981492BA8
:1034E0009C81792BF801408351836283738303C0ED
:1034F00081E001C081E02896CDBFDEBFDF91CF9192
:063500001F910F910895D8
:10350600AF92BF92CF92DF92EF920F931F93CF931A
:10351600DF9300D000D0CDB7DEB78031910550F5EE
:103526006115710549F15B016C016894EE24E2F8BE
:103536008E010F5F1F4F26E042E060E070E080E002
:103546000E94A112811119C02A8130E0322F222750
:103556009981292B41E050E002C0440F551FCA94BF
:10356600E2F72423352391E0232B09F090E0F501BF
:10357600908303C082EE01C082EE2496CDBFDEBFEB
:10358600DF91CF911F910F91EF90DF90CF90BF9079
:04359600AF90089555
:10359A000F931F93CF93DF93CDB7DEB7C75CD109E3
:1035AA00CDBFDEBF8901E091522DF091532D2081CC
:1035BA0031818C836D837E834115510539F0FA017F
:1035CA00808191818F83988782818987BE016F5F0D
:1035DA007F4FC9010E94832E81111AC06091522D1A
:1035EA007091532DCE0101960E94B011811110C025
:1035FA000115110569F09F81933449F490E4FE01A5
:10360A003896D80101900D929A95E1F701C086EE9D
:10361A00C953DF4FCDBFDEBFDF91CF911F910F910D
:02362A00089501
:10362C000F931F93CF93DF9300D000D0CDB7DEB7AD
:10363C0021E030E040E050E06BE070E080E090E0B2
:10364C000E94511D22E030E040E050E061E070E06B
:10365C0080E090E00E94511D0E94EF31082F8111F3
:10366C001EC014E0AE014F5F5F4F6FE070E080E072
:10367C0090E00E941C2E811113C0898182FF04C02E
:10368C000E94EC3001E00CC062E070E080E090E061
:10369C000E948F2B115031F70E94EC3001C000E0DA
:1036AC00802F2496CDBFDEBFDF91CF911F910F915C
:0236BC0008956F
:1036BE008F929F92AF92BF92CF92DF92EF92FF9234
:1036CE00CF93DF9300D000D0CDB7DEB76B017C0176
:1036DE0049015A01AE014F5F5F4F0E941C2E898136
:1036EE009A81AB81BC81AC01BD01482159216A216F
:1036FE007B21452B462B472BA1F0B501A40140950C
:10370E005095609570959A01AB01282339234A2371
:10371E005B2329833A834B835C83C701B6010E94E6
:10372E00A01E80916E2D2496CDBFDEBFDF91CF916E
:10373E00FF90EF90DF90CF90BF90AF909F908F90C3
:02374E000895DC
:10375000CF92DF92EF92FF920F931F93CF93DF935D
:10376000CDB7DEB7AD97CDBFDEBFD42EC52E790164
:10377000CE0101960E9463208C01892B21F587E1FF
:103780009CE69F938F9388EF9BE69F938F93CE0148
:1037900001969F938F938CE09CE69F938F9382E298
:1037A0009CE69F938F938AE39CE69F938F9384E09C
:1037B0008F931F92CF92DF920E943D26F701808364
:1037C0009183CDBFDEBFC801AD96CDBFDEBFDF9117
:1037D000CF911F910F91FF90EF90DF90CF900895C0
:1037E0000F931F93CF93DF93EC018091522D909113
:1037F000532D892B11F00E94182FECEAFCE283EC88
:103800009CE28083918380EB9CE282839383BF015F
:10381000CE010E94CB26811126C08CEA9CE28093C7
:10382000522D9093532D89818330E1F42091AC2C5B
:103830003091AD2C2F5F3F4F01E010E043E150E0AD
:1038400060E070E080E00E94900981110CC0E0917E
:10385000522DF091532D0190F081E02D9181987FB0
:10386000918301C080E0DF91CF911F910F91089566
:103870001F920F920FB60F9211242F933F934F93E5
:103880005F936F937F938F939F93AF93BF93EF93C8
:10389000FF93B99B05C0E091602DF091612D0995D2
:1038A000B89B05C0E0915E2DF0915F2D0995BB9B03
:1038B00005C0E0915C2DF0915D2D0995BA9B05C086
:1038C000E0915A2DF0915B2D0995BC9B05C0E091CC
:1038D000582DF091592D09958FEF87BBFF91EF91EE
:1038E000BF91AF919F918F917F916F915F914F9118
:0E38F0003F912F910F900FBE0F901F901895D3
:1038FE008F929F92AF92BF92CF92DF92EF92FF92F2
:10390E000F931F93CF93DF93EC014A015B01680184
:10391E0079010130104821053105D8F000E010E89A
:10392E0020E030E0B501A401CE010E94EE0B811122
:10393E0018C080E8D81AE108F10880E8980EA11C9A
:10394E00B11CD05881E0C81680E8D806E104F10415
:10395E0028F797018601B501A401CE010E94EE0B56
:10396E0001C084EFDF91CF911F910F91FF90EF90E7
:0E397E00DF90CF90BF90AF909F908F900895F4
:10398C00EF92FF920F931F93CF93DF93F82E8A0140
:10399C00E901B901CA010E94EE2E882361F182E08F
:1039AC00F81629F01882198283E090E029C0A8014A
:1039BC00B801888199810E94951D8032F9F47801B3
:1039CC0080E4E80EF11CA701B80180E090E00E94B1
:1039DC00D52381110BC0A801B70180E490E00E94AF
:1039EC0098218883998380E090E00AC0188219821C
:1039FC0090E0916005C085E090E002C085E090E029
:0E3A0C00DF91CF911F910F91FF90EF900895E1
:103A1A00EF92FF921F93CF93DF93CDB7DEB7C75CC8
:103A2A00D109CDBFDEBF182F7A01E091522DF09156
:103A3A00532D808191811C836D837E83BE016F5FCC
:103A4A007F4F0E946E3081111DC06091522D70917E
:103A5A00532DCE0101960E94B011988541E050E0A5
:103A6A00112311F040E050E0292F30E024233523C0
:103A7A00232B41F4E114F10421F0F701908380E053
:103A8A0001C080E0C953DF4FCDBFDEBFDF91CF91C8
:083A9A001F91FF90EF900895C9
:103AA2008F929F92AF92BF92CF92DF92EF92FF924C
:103AB200CF93DF9300D000D0CDB7DEB74B015C01CE
:103AC20069017A01AE014F5F5F4F0E941C2E49814E
:103AD2005A816B817C81DB01CA018C219D21AE213F
:103AE200BF21C816D906EA06FB0671F09A01AB019E
:103AF2002C293D294E295F2929833A834B835C83F4
:103B0200C501B4010E94A01E80916E2D2496CDBFE6
:103B1200DEBFDF91CF91FF90EF90DF90CF90BF900B
:083B2200AF909F908F90089571
:103B2A00AF92BF92CF92DF92EF92FF921F93CF9301
:103B3A00DF936115710531F18230910530F15C0135
:103B4A00B694A79481709927A80EB91EA114B1043E
:103B5A00F9F06A01EB017A01CA0CDB1C88810E9428
:103B6A00972D182F1295107F89810E94972D812BEE
:103B7A00F70181937F012296EC15FD0579F78A2DCD
:103B8A009B2D08C080E090E005C080E090E002C074
:103B9A0080E090E0DF91CF911F91FF90EF90DF904E
:083BAA00CF90BF90AF90089589
:103BB2000F931F93CF93DF93CDB7DEB72597CDBF7A
:103BC200DEBF0E94A3318C018FEF8D8380E00E94C3
:103BD200AA248823D9F361E070E0CE0105960E9401
:103BE200612E60E070E080E090E00E9442310E942D
:103BF200B3310E9431298130E1F3F801628973897E
:103C020080E090E00E94A32E44E050E0BE016F5F8E
:103C12007F4F8091642D0E94382B64E070E0CE01CA
:103C220001960E94641F2596CDBFDEBFDF91CF9122
:063C32001F910F9108959F
:103C38000F931F93CF93DF93CDB7DEB7C75CD1093E
:103C4800CDBFDEBF4115510549F18A01282FE0910A
:103C5800522DF091532D808191812C836D837E8329
:103C6800BE016F5F7F4F0E94643081111AC060915E
:103C7800522D7091532DCE0101960E94B0118111E1
:103C880010C08F81833461F480E4FE013896D80136
:103C980001900D928A95E1F780E003C082EE01C0A1
:103CA80086EEC953DF4FCDBFDEBFDF91CF911F91A5
:043CB8000F910895CB
:103CBC00CF92DF92EF92FF920F931F93CF93DF93EC
:103CCC0000D0CDB7DEB7F82E6801012B99F084E057
:103CDC00E816E9F080E2E8120FC010C08F2D806862
:103CEC00F82E69817A8120E030E0A6018F2D0E94A8
:103CFC00F31715C082EE13C082EE11C08E010F5F58
:103D0C001F4F8F2D0E946D26811109C0E7CF8E01A8
:103D1C000F5F1F4F8F2D0E946D26882311F30F907C
:103D2C000F90DF91CF911F910F91FF90EF90DF904B
:043D3C00CF90089587
:103D4000CF92DF92EF92FF92CF93DF93CDB7DEB7A2
:103D50002897CDBFDEBFE0916E2DE11126C0E1E0D6
:103D6000E0936E2D613371058105910540F4E3EC1C
:103D7000E983E0E8EA83FE013396A7E007C0E9ECB7
:103D8000E9838A837B83FE013496A8E060835183B4
:103D90004283338324836A2FCE0101960E946D2DC6
:103DA000811105C010926E2D03C081E001C081E039
:103DB0002896CDBFDEBFDF91CF91FF90EF90DF90CF
:043DC000CF90089503
:103DC400AF92BF92CF92DF92EF92FF921F93CF9365
:103DD400DF935C016B017A01FC01D081DD23A9F042
:103DE40080E090E010E0F601E80FF91F80810E9466
:103DF400AB2B8D131BC01F5F812F90E0F501E80FE3
:103E0400F91FD081D111EFCF02C080E090E0E6012C
:103E1400C80FD91F88818D3321F00E942830882350
:103E240031F0F701C083D18381E001C080E0DF91EC
:103E3400CF911F91FF90EF90DF90CF90BF90AF9004
:023E44000895DF
:103E4600DF92EF92FF920F931F93CF93DF937A0146
:103E56008901DA011C92D12CCDE0DAE01AC08D2D51
:103E660090E0FC01EE0FFF1FEE0FFF1F8E0F9F1F4E
:103E7600FC01E251F54760817181C7010E9407305C
:103E8600F70101900020E9F73197C083D1831282B0
:103E9600D3940E94FD31D81610F3F701019000204B
:103EA600E9F73197EE19FF09D801ED93FC9380E00D
:103EB60090E0DF91CF911F910F91FF90EF90DF90EF
:023EC60008955D
:103EC8000F931F93CF93DF93CDB7DEB72897CDBF5E
:103ED800DEBFAC0194E0998321E12A8323E32B839D
:103EE80023E42C839D8397E09E8394EC9F8390E446
:103EF800988764307105B9F48A0144E050E0BE0146
:103F08006F5F7F4FC8010E94662F892B71F044E0D4
:103F180050E0BE016B5F7F4FC8010E94662F892B5E
:103F280031F080ED05C080ED03C080E001C087ED71
:103F38002896CDBFDEBFDF91CF911F910F910895D5
:103F4800CF92DF92EF92FF92CF93DF93813049F5C2
:103F58006115710549F1E901FB0140E050E060E0BD
:103F680070E0808191810E9491046B017C0118822C
:103F7800198281E00E94442520E030E140E050E0D1
:103F8800C701B6010E946C0AC82F80E00E94442530
:103F9800CC2321F08C2F90E092600BC080E090E061
:103FA80008C083E090E002C085E090E0F90110824B
:103FB8001182DF91CF91FF90EF90DF90CF9008951D
:103FC800CF93DF9300D01F92CDB7DEB719821A8244
:103FD800813029F56115710529F1FB01BE016F5F7B
:103FE8007F4F808191810E94EE2C009719F5BE01C8
:103FF8006D5F7F4F89819A810E94831A882319F007
:1040080090E0916017C08B8181110FC089819A81DE
:104018000E94D430882361F090E091600BC083E067
:1040280090E008C085E090E005C080E090E002C024
:1040380080E090E02396CDBFDEBFDF91CF91089559
:10404800CF93DF93D82F0E940932882379F10E94F9
:10405800C7310E94CB3162E370E080E090E00E94BB
:104068008F2B0E94C3316AE070E080E090E00E94EC
:104078008F2B0E94CF316AE070E080E090E00E94D0
:104088008F2B0E94E430C82F811112C0DD2399F0D4
:104098000E941A2B882371F020E030E0A90160E02B
:1040A80073E082E090E00E94A01E05C0C1E003C05A
:0E40B800C1E001C0C1E08C2FDF91CF910895CF
:1040C600EF92FF920F931F93CF93DF93CDB7DEB797
:1040D600A697CDBFDEBFF82EE92ECE0101960E942F
:1040E600A32F8C01892BF9F48A851F928F938985DA
:1040F6001F928F9388851F928F938F811F928F9324
:104106008E811F928F938D811F928F938CEB9BE6EE
:104116009F938F931F928DE28F93EF92FF920E944F
:104126003D26CDBFDEBFC801A696CDBFDEBFDF915F
:0C413600CF911F910F91FF90EF90089522
:104142000F931F93CF93DF93CDB7DEB7C75CD1092F
:10415200CDBFDEBF8C01E091522DF091532D8081B5
:1041620091811C821D821E82BE016F5F7F4F0E9461
:10417200503081111AC06091522D7091532DCE0191
:1041820001960E94B011811110C09F81933261F497
:104192000115110551F090E2FE013896D801019007
:1041A2000D929A95E1F701C086EEC953DF4FCDBF5C
:0C41B200DEBFDF91CF911F910F910895A7
:1041BE00EF92FF920F931F93CF93DF93FA0100813B
:1041CE001181108211820115110521F17A01EB0185
:1041DE00188241E050E08091642D0E94382B488176
:1041EE008CEF840F8834C0F4842F90E008171907E1
:1041FE00A8F0AC0141505109BE016F5F7F4F809115
:10420E00642D0E94382B888190E0F7018083918382
:10421E0080E005C08DEE03C084EE01C08DEEDF910F
:0C422E00CF911F910F91FF90EF90089529
:10423A000E9494318823C9F0ADEEBCE21696ED9146
:10424A00FC91179752968D919C91539709958230BC
:10425A0019F0833021F006C00E943F2F08950E9472
:10426A00732F08950E94C52F0895E0E1FDE2808131
:10427A0088608083ADEEBCE2ED91FC9111971C96AB
:10428A008D919C911D970995833039F0843041F0C6
:10429A00823049F40E943F2F08950E94732F089597
:0C42AA000E94C02208950E94C52F0895B4
:1042B600CF92DF92EF920F931F93CF93DF93CDB7F9
:1042C600DEB7A097CDBFDEBF009719F16C016894E9
:1042D600EE24E5F88E010F5F1F4F20E040E060E01E
:1042E60070E080E00E94A112811114C029813A81F8
:1042F600F601208331832B813C8122833383D601CF
:10430600149695E0FE01399601900D929A95E1F783
:1043160001C082EEA096CDBFDEBFDF91CF911F9187
:0A4326000F91EF90DF90CF90089503
:10433000AF92BF92CF92DF92EF92FF920F931F93B3
:10434000CF93DF936115710501F1009709F15C01CD
:10435000C42FD52F8B016B01C80ED91E7801F8012F
:1043600081918F0182958F700E942F318883F70190
:1043700080818F700E942F31898322960C151D0534
:1043800069F7C501880F991F05C080E090E002C061
:1043900080E090E0DF91CF911F910F91FF90EF901F
:0A43A000DF90CF90BF90AF9008951A
:1043AA001F93CF93DF9300D000D0CDB7DEB70E9422
:1043BA00EF31182F811127C0AE014F5F5F4F60E1C7
:1043CA0070E080E090E00E941C2E81111DC089815E
:1043DA0080FDF2CF22E030E040E050E061E070E0A2
:1043EA0080E090E00E945F1B21E030E040E050E076
:1043FA006BE070E080E090E00E945F1B0E94EF316A
:10440A0011E0182701C010E0812F2496CDBFDEBF2E
:08441A00DF91CF911F9108957D
:104422000F931F93CF93DF93FB01238121FD03C0E1
:104432008FEF9FEF2CC022FF16C046815781248147
:1044420035814217530744F4A081B1819D012F5F4A
:104452003F4F208331838C93268137812F5F3F4FDB
:104462002683378314C08B01EC01FB010084F185A4
:10447200E02D0995892BE1F6D80116968D919C9134
:104482001797019616968D939C931797CE01DF91FD
:08449200CF911F910F910895D5
:10449A00FC01892B69F1248130E0322F22278681A1
:1044AA008F70A901482B258180E1289F9001112452
:1044BA003327242B352B678170E0762F6627818579
:1044CA008F70682B408580E1489FA00111245527F1
:1044DA00CB01842B952B2115310561F0009761F0F2
:1044EA008236934158F42136334150F080E00895E2
:1044FA0081EF089581EF089581EF089583EF08957C
:04450A0083EF08959E
:10450E00CF93DF93823069F5EB01888199810E9408
:10451E00A925882311F090E029C06A817B8182EC65
:10452E0094E90E947624882351F0E091AA2CF09110
:10453E00AB2C82818093660480E090E017C06A8184
:10454E007B8185EC94E90E947624882369F0E091C2
:10455E00AA2CF091AB2C82818093650480E090E0D0
:10456E0005C083E090E002C085E090E0DF91CF913E
:02457E0008959E
:104580000E9494318823C9F0ADEEBCE21696ED91FD
:10459000FC91179752968D919C9153970995823073
:1045A00019F0833021F006C00E943F2F08950E9429
:1045B000732F08950E94C52F0895E0E1FDE28081E8
:1045C0008E7F8083EDEEFCE2A58DB68DCD01019648
:1045D000858F968F8C918093A808878D90A10197E5
:1045E000878F90A3892B11F485E0089583E00895C7
:1045F000EF92FF920F931F93CF93DF93F82EEA0170
:104600008901B901CA010E94EE2E8823E9F0F11058
:104610001EC07E0189E0E80EF11CC7010E945B21EB
:1046200081110CC0AE01B70189E090E00E94982191
:10463000F8018083918380E090E00BC0F801108244
:10464000118290E0916005C085E090E002C083E0B7
:1046500090E0DF91CF911F910F91FF90EF9008951F
:10466000EF92FF920F931F93CF93DF937A010097FE
:1046700011F1EB018B01080F191F20E030E016C08B
:10468000A32FAA1FAA27AA1F220F331F71E09B2F57
:10469000952309F470E07A1719F085E0282730583F
:1046A000550F319769F7C017D10739F0B991E8E094
:1046B000F0E051E0E5CF20E030E0F70120833183E6
:0E46C000DF91CF911F910F91FF90EF90089521
:1046CE00E0E9F4E0808188608193E83984E0F807BE
:1046DE00C9F7E0EBF4E0808188608193E83B84E0E9
:1046EE00F807C9F7E0E1F4E0808188608193E83152
:1046FE0084E0F807C9F7E0E3F4E0808188608193F5
:10470E00E83384E0F807C9F7E0E5F4E080818860DB
:10471E008193E83584E0F807C9F7E0E7F4E080819B
:0E472E0088608193E83784E0F807C9F70895A2
:10473C00CF92DF92EF92FF920F931F93CF93DF9361
:10474C007C018B01672BE9F0C12C6894DD24D5F832
:10475C00E801013080E2180710F0CC2DDD2D80EF40
:10476C000E9441248C7079F4BE01C7010E94EF189D
:10477C00882359F0EC0EFD1E0C1B1D0B49F780E035
:10478C0005C080E003C081E001C081E0DF91CF91E2
:0E479C001F910F91FF90EF90DF90CF90089546
:1047AA00DF92EF92FF920F931F93CF93DF938C01C7
:1047BA00EB017A0180E090E00E94A12081111EC0E5
:1047CA00E091522DF091532D0190F081E02D8081DE
:1047DA00833029F46894DD24D5F880E402C0D12C12
:1047EA0080E040E250E0BE010E94AC2D811106C07B
:1047FA00A701B8018D2D80680E941C1EDF91CF9100
:0C480A001F910F91FF90EF90DF90089538
:104816000F931F93CF93DF9384131DC0611571050A
:10482600E9F0EB01B901888199810E94BC298823AE
:10483600C1F0B8018A819B810E9476288823A1F065
:10484600F8018081918101978F3F910509F078F4F5
:1048560080E090E00EC083E090E00BC085E090E041
:1048660008C085E090E005C085E090E002C085E0E4
:0C48760090E0DF91CF911F910F91089509
:104882000F931F93CF93DF931F92CDB7DEB7082FFD
:104892001BE061E070E0CE0101960E94EF188823D0
:1048A200C9F0003F21F48981807F803FC1F0898176
:1048B20008130AC061E070E0CE0101960E94EF1871
:1048C200882351F089810BC0811108C0115009F76A
:1048D2008FEF05C08FEF03C08FEF01C08FEF0F90F6
:0A48E200DF91CF911F910F9108950F
:1048EC00EF92FF920F931F93CF93DF937C018B0179
:1048FC00FC01C081CC23A9F080E090E0D0E0F8016D
:10490C00E80FF91F80810E94AB2B8C1315C0DF5F61
:10491C008D2F90E0F701E80FF91FC081C111EFCF87
:10492C0002C080E090E0F801E80FF91F81E090816F
:10493C00992319F080E001C080E0DF91CF911F91A5
:08494C000F91FF90EF90089518
:104954009091102D92FD2EC0EDEEFCE2848FA0E12B
:10496400BDE2892F887F9EE091A324EF31E0228F5E
:10497400338F846088608C9383E092E38083918397
:10498400148615868283938316861786848395837B
:10499400108A118A86839783128A138A85E092E3A8
:1049A40080879187148A158A0E94A8300E944E310C
:0849B40080E0089581E0089500
:1049BC00EF92FF920F931F93CF93DF9300D0CDB75D
:1049CC00DEB77C01FC0100818EEF800F082F10E018
:1049DC00AE014F5F5F4FB701C8010E943023F70152
:1049EC00E00FF11F99818081981309C0F701E00F46
:1049FC00F11F9A818181981304C080E003C085EE79
:104A0C0001C085EE0F900F90DF91CF911F910F9108
:064A1C00FF90EF900895E9
:104A2200CF93DF93CDB7DEB7A697CDBFDEBF00979A
:104A3200F9F0FC01808191818093622D9093632D26
:104A420010926F2D21E633E140E353E160E080E014
:104A52000E948B2F81110EC082E08093702D0E94E4
:104A62007E31811109C0CE0101960E94FB2B05C047
:104A720081EF03C08BEF01C08BEFA696CDBFDEBFE7
:064A8200DF91CF910895C1
:104A88001F93CF93DF93CDB7DEB72B97CDBFDEBF94
:104A9800882361F00E94F231882321F080E090E0C1
:104AA8000E94F4300E94722E182F0AC0CE0101967F
:104AB8002BE0FC0111922A95E9F70E94592F182F33
:104AC8008AEF90E00E94F12F112321F0812F90E0CE
:104AD800926002C080E090E02B96CDBFDEBFDF91F0
:064AE800CF911F9108951B
:104AEE004460A81B004D60D7310159600D2900614B
:104AFE0060EE16007260E41F007E60980F008E60FC
:104B0E006F0E009A60951900AD60F82200BB60C66A
:104B1E001C01CD60AC1001DE60461701F2609D17DE
:104B2E0000FC60231F000C61963000156187220087
:104B3E001F61990C002A61A41F0038617C13004587
:044B4E00612A1201C5
:104B5200CF92DF92EF92FF920F931F93CF93DF9347
:104B62006C0109E21DE2C0E0D0E0B601F8018081EB
:104B720091810E947624882369F0CE01880F991FC3
:104B82008C0F9D1F875D924D8093AA2C9093AB2C26
:104B920080E007C021960D5F1F4FC530D10529F770
:104BA20085E0DF91CF911F910F91FF90EF90DF9001
:044BB200CF90089503
:104BB600FC012081243049F581818730D1F040F411
:104BC600813089F020F1833081F0853081F01BC07F
:104BD6008F3099F018F4883071F015C0813179F072
:104BE6008F3F79F010C081ED089582ED089586ED2E
:104BF600089587ED08958AEF089584EF089583EF69
:104C0600089584ED089581EE089580E0089580E08A
:024C16000895FF
:104C18000F931F93CF93DF93EC018B0189819A81C6
:104C28000E948027F801808191818B839C838281F7
:104C380093818D839E83848195818F8398878681D4
:104C4800978189879A87808591858B879C878485BA
:104C580095858F87988B828593858D879E87808998
:104C68009189898B9A8B80E0DF91CF911F910F9169
:024C780008959D
:104C7A00AEE0B0E0E3E4F6E20C946E2C0D891E89F6
:104C8A008F89988D26E02C8309831A8397FF02C0A7
:104C9A0080E090E801978D839E83AE01455E5F4F69
:104CAA00698D7A8DCE0101960E94B0024D815E8196
:104CBA0057FD0AC02F813885421753070CF49A0111
:104CCA00F801E20FF31F10822E96E4E00C94B72C41
:104CDA000F931F930115110541F0837041F0823043
:104CEA00A1F0813021F082EE1FC082EE1DC050E09B
:104CFA00440F551F440F551F440F551F2770422B51
:104D0A00F8014083518380E00FC0277030E0342BD4
:104D1A00660F771F660F771F660F771F262B372BB5
:0E4D2A00F8012083318380E01F910F910895DE
:104D38000F931F93CF93DF93CDB7DEB76297CDBFA5
:104D4800DEBF8C01BE016F5F7F4F0E940C26D80129
:104D580011966D917C9112971396ED91FC91149791
:104D6800CE010196099581110AC089899A89F801AD
:104D7800818B928B0580F681E02DC801099562969A
:0E4D8800CDBFDEBFDF91CF911F910F91089537
:104D96000F931F93CF93DF930097E1F06115710591
:104DA600D9F0FB012081318121153105B9F042810D
:104DB6005381452BA9F0EB018C01B901FC018181DE
:104DC6000E943C3081110DC06A817B81C8010E941E
:104DD600C02D07C082EE05C082EE03C082EE01C080
:0C4DE60082EEDF91CF911F910F91089594
:104DF2000F931F93CF93DF93CDB7DEB7A097CDBFAD
:104E0200DEBF009729F488EB91E90E94792C15C046
:104E12009F938F938DEB91E99F938F931F9280E2E3
:104E22008F938E010F5F1F4F1F930F930E943D269A
:104E3200C8010E94792CCDBFDEBFA096CDBFDEBFD8
:0A4E4200DF91CF911F910F910895A9
:104E4C00CF93DF93CDB7DEB7C75CD109CDBFDEBF43
:104E5C00E091522DF091532D20813181FE0131963C
:104E6C0097ECDF011D929A95E9F78C836D837E8315
:104E7C00BF01C9010E944630811108C06091522DBA
:104E8C007091532DCE0101960E94B011C953DF4F82
:0A4E9C00CDBFDEBFDF91CF91089576
:104EA600CF93DF930E944E318091102D80FF07C073
:104EB6000E949431882319F08FE080930E2D0E9472
:104EC6005A31882319F080E180930E2D0E945431C7
:104ED600882319F081E180930E2DCDEEDCE2E9A165
:104EE600F0E0EE0FFF1FE753F34D0190F081E02D48
:0A4EF600099589A3DF91CF9108957B
:104F0000FB01DC018C91811124C08CE091E3808352
:104F100091838FEF91E3828393838FED90E2868379
:104F200097838FEA9FE28483958389E19DE284875A
:104F3000958789ED9DE18087918784E09DE2828756
:104F4000938781E092E386879787108A118A80E0B1
:064F5000089580EF0895B2
:104F5600CF93DF9300D0CDB7DEB719821A8221E056
:104F66002093892C8093502D9093512D86E891E9BA
:104F76000E94792C9E012F5F3F4F49E858E260E07E
:104F860070E080E00E94A81B89E898E20E94792CD4
:104F960080EB91E90E94792C0F900F90DF91CF91D1
:024FA60008956C
:104FA8001F920F920FB60F9211242F933F934F9396
:104FB8005F936F937F938F939F93AF93BF93EF9379
:104FC800FF93E091562DF091572D309709F00995F0
:104FD800FF91EF91BF91AF919F918F917F916F91C9
:104FE8005F914F913F912F910F900FBE0F901F909F
:024FF80018950A
:104FFA001F920F920FB60F9211242F933F934F9344
:10500A005F936F937F938F939F93AF93BF93EF9326
:10501A00FF93E091542DF091552D309709F00995A1
:10502A00FF91EF91BF91AF919F918F917F916F9176
:10503A005F914F913F912F910F900FBE0F901F904C
:02504A001895B7
:10504C000F931F93CF93DF9300D0CDB7DEB7FC0146
:10505C0020812223A9F08B0140E050E0BE016F5F5C
:10506C007F4F0E94B207F801608371838283938320
:10507C00E981FA8181E09081992319F080E001C0E7
:10508C0080E00F900F90DF91CF911F910F910895B9
:10509C00CF93DF9300D000D0CDB7DEB720916E2D2B
:1050AC00211111C021E020936E2DAE014F5F5F4F97
:1050BC000E94381A81110BC010926E2D69817A8171
:1050CC008B819C8107C060E070E0CB0103C060E085
:1050DC0070E0CB012496CDBFDEBFDF91CF91089558
:1050EC000F931F93CF93DF9300D000D0CDB7DEB7D3
:1050FC008B01BE016F5F7F4F0E942628882379F0B9
:10510C0049815A816B817C814115510591E0690778
:10511C00710520F4F8014083518301C080E024968E
:0E512C00CDBFDEBFDF91CF911F910F9108958F
:10513A0040E068ED88E790E00E94AB3140E068ED1E
:10514A008CE790E00E94AB3140E068ED80E790E0A8
:10515A000E94AB3141E068ED81E690E00E94AB31FC
:10516A0040E068ED80E690E00E94AB3140E068EDF7
:0C517A0082E690E00E94AB3180E00895D6
:1051860057656C636F6D6520746F20746865206168
:1051960076722D696F7420636F6D6D616E64206821
:1051A600616E646C6572210D0A0052454144590DC9
:1051B6000A004F4B0D0A004552524F523A203078A2
:0A51C60025580D0A003E000D0A00F6
:1051D0006115710581F090E0FC01EE0FFF1FE351B6
:1051E000F34D60837183880F991FFC01E750F34DE5
:1051F00040835183089590E0FC01EE0FFF1FE351BF
:10520000F34D23E032E320833183880F991FFC01A3
:0A521000E750F34D1082118208955B
:10521A00CF93DF938130D9F4E901FB0181818F9328
:10522A0080818F938AE69CE69F938F9384E08F9385
:10523A001F925F934F930E943D26888399838DB76F
:10524A009EB708968DBF9EBF80E090E002C083E0C3
:08525A0090E0DF91CF9108956F
:10526200CF93DF930E945431882341F0E0E1FDE2C5
:1052720080818D7F808382E080930F2D8091102D1D
:1052820081FD0EC0E0E1FDE28B7F8083CDEEDCE2AA
:105292008FEF8C8F0E944E310E9448318AA101C04B
:0852A20081E0DF91CF91089536
:1052AA00EF92FF920F931F93CF93C82F8B017A012E
:1052BA008C2F0E94AA248823D9F3B701C8010E941F
:1052CA00612E60E070E087E092E30E9442310E9422
:1052DA00B3310E9431298130E1F3CF911F910F91AF
:0652EA00FF90EF90089513
:1052F000E0E1FDE280818E7F8083ADEEBCE282E062
:1053000092968C9392971496ED91FC9115975096E6
:105310008D919C9151970995823019F0833021F03D
:1053200006C00E943F2F08950E94732F08950E9487
:04533000C52F0895E8
:10533400A1E21A2EAA1BBB1BFD010DC0AA1FBB1F95
:10534400EE1FFF1FA217B307E407F50720F0A21B07
:10535400B30BE40BF50B661F771F881F991F1A9474
:1053640069F760957095809590959B01AC01BD019E
:04537400CF010895C8
:105378000F931F93CF93DF9300D000D0CDB7DEB744
:105388008B01BE016F5F7F4F0E942628882349F05A
:1053980049815A816B817C81F80140835183628302
:1053A80073832496CDBFDEBFDF91CF911F910F91FC
:0253B800089556
:1053BA00511B002828002419001C3200431302152F
:1053CA002300408D0230050056A500172300083738
:1053DA00001614004632001B170002050080E00187
:1053EA00771409474B00419902200A00453D0412EF
:0253FA002D0084
:1053FC00511B002828002419001C320043AC001556
:10540C00230040D70030050056A5001723000837AD
:10541C00001614004632001B170002050080A00085
:10542C00777102472A0041DC00200A00452701124F
:02543C002D0041
:10543E00511B002828002419001C3200434B001574
:10544E00190040730030050056A5001723000837D9
:10545E00001614004632001B170002050080500093
:10546E0077FA00472400417300200A0045690012B4
:02547E002D00FF
:10548000CF93DF931F92CDB7DEB70E94822D0E948B
:1054900036310E94D3311982AE014F5F5F4F60E019
:1054A00070E081E00E940D1D84E891E30E94AB272B
:1054B000009104A1109105A1F80109950E949300A3
:0254C000FBCF20
:1054C2004F4E004F4646004C45443A2573206973BF
:1054D200204F4E0A0D004C45443A25732069732033
:1054E2004F46460A0D004552524F52004441544124
:0F54F20000434F4E4E005749464900414C4C0075
:105502008091652D882389F0E091662DEF5FE77029
:10551200E093662DF0E0E85CF24D808180934208D2
:105522008091652D81508093652D8091652D81112B
:0E55320005C0E0E4F8E085818F7D8583089553
:105540002091672D2F5F27709091652D9830E1F3A2
:10555000E22FF0E0E85CF24D80832093672D0FB6D8
:10556000F8940F928091652D8F5F8093652D0F9039
:0E5570000FBEE0E4F8E0858180628583089537
:10557E000E946631ADEEBCE282E092968C939297D9
:10558E001296ED91FC9113971E968D919C911F97FB
:10559E000995823019F0833021F006C00E943F2F0A
:0E55AE0008950E94732F08950E94BA2F089549
:1055BC00280D002414001C3200433A00150B004047
:1055CC007300111700300200172000080E00161D82
:1055DC00000103004630001B1700020500470900BC
:0C55EC00413C00200A00454800121A0053
:1055F80020E031E040E050E068E074E180E090E0D5
:105608000E94511D81110FC020E030E041E050E0C0
:1056180060E07AE180E090E00E94511D91E08823EB
:0C56280019F090E001C090E0892F089577
:1056340021E030E040E050E068E171E180E090E09A
:105644000E94511D81110FC020E034E040E050E081
:1056540060E074E180E090E00E945F1B91E08823A9
:0C56640019F090E001C090E0892F08953B
:10567000EF92FF920F931F93CF93C82F8B017A0164
:105680008C2F0E94AA248823D9F3B701C8010E9455
:10569000612E0E94AF310E9431298130E1F3CF9118
:0A56A0001F910F91FF90EF90089505
:1056AA00E0E4F8E08BE591E08087918780ED8583DF
:1056BA0080EC868383E08783138614861686158694
:1056CA001092692D10926A2D1092682D1092662DF3
:0A56DA001092672D1092652D0895BF
:1056E400280D002414001C3200150B004073001117
:1056F4001700300200172000080E00161D000103D9
:10570400004630001B1700020500470900413C0019
:09571400200A00454800121A00A9
:10571E00CF92DF92EF92FF9261157105810591058F
:10572E0071F0DC01CB016C017D0181E090E00E9403
:10573E00F12F81E0C81AD108E108F108B1F7FF9006
:08574E00EF90DF90CF90089569
:10575600882389F08D3089F08A3089F090EE980F91
:10576600913480F025E8280F243060F081568A3184
:1057760040F4892F089580E008958DE008958AE029
:06578600089583E208957E
:10578C00FB019381892F837026E12283823018F4E8
:10579C008BE1818309C0833061F495FF03C087E4FA
:1057AC00818302C087E28183CF010E94252F80E094
:0657BC00089582EE08953D
:1057C200CF930E94C12E882369F080E00E943E0B95
:1057D200C82F811109C00E940B32882339F00E9420
:1057E200993105C0C1E003C0C1E001C0C1E08C2F06
:0457F200CF910895B6
:1057F6000F931F93CF938C010E94912C81110EC0A1
:10580600B80181E00E942215C82F0E94472CC111C1
:1058160004C0C8010E944D2201C08C2FCF911F9158
:045826000F91089541
:10582A008091682D8823E1F3E091692DEF5FE7709D
:10583A00E093692D0FB6F8940F928091682D8150EC
:10584A008093682D0F900FBEF0E0E05CF24D8081EE
:02585A000895AF
:10585C009091102D91FD13C0E0E1FDE292609083D8
:10586C00882321F081E080930E2D03C082E0809389
:10587C000E2D0E9453270E94E62D80E0089581E0B2
:02588C0008957D
:10588E0080916D2D882329F0815080936D2D81118B
:10589E000AC080916C2D882341F00E94D521882367
:1058AE0031F080E0089580E0089580E0089584EF5F
:0258BE0008954B
:1058C0002F923F924F925F926F927F928F929F9210
:1058D000AF92BF92CF92DF92EF92FF920F931F93FE
:1058E000CF93DF93CDB7DEB7CA1BDB0BCDBFDEBFD7
:0258F000099419
:1058F200CF93DF93EC018091502D9091512D892B04
:1059020061F08881882349F02196E091502DF09131
:10591200512D099589918111F8CFDF91CF91089589
:1059220080916D2D91E0980F90936D2D81110AC099
:1059320080916C2D882341F00E94161B882331F040
:1059420080E0089580E0089580E0089584EF08954E
:105952002A88398848885F846E847D848C849B84FD
:10596200AA84B984C884DF80EE80FD800C811B810B
:10597200AA81B981CE0FD11DCDBFDEBFED01089541
:10598200FB0182E1828387E08183838188231CF487
:1059920087E2818302C08BE08183442319F08181F5
:0E59A200805E8183CF010E94252F80E0089552
:1059B00090914008E0916A2DEF5FE7708091692D2A
