:100000000C949D000C9486290C9443260C9486290C
:100010000C9486290C9486290C9486290C948629A4
:100020000C9486290C9486290C9486290C94862994
:100030000C9486290C9486290C9486290C94862984
:100040000C9486290C9486290C9486290C94D12032
:100050000C9486290C9486290C9486290C94862964
:100060000C9486290C9486290C9486290C94862954
:100070000C9486290C9486290C94B71E0C9486291E
:100080000C949B1F0C94C81F0C945C240C94862920
:100090000C9486290C9486290C9486290C94862924
:1000A0000C9486290C9486290C9486290C94F920AA
:1000B0000C9486290C9486290C9486290C94862904
:1000C0000C9486290C9486290C9486290C948629F4
:1000D0000C9486290C9486290C9486290C948629E4
:1000E0000C9486290C9486290C9486290C948629D4
:1000F0000C9486290C9486290C94411F0C946E1F35
:100100000C942A244000460A80460A465B00532A83
:10011000465B467F80467F46A300537B46A346C787
:100120008046C746DF00539F46DF46E38046E346EE
:10013000ED0053B746ED46FC800011241FBECFEF03
:10014000CDBFDFE7DEBFE4E0F1E041E019C0B791E9
:10015000A79137912791079107FD0EC0979187913D
:10016000EF01F92FE82F0BBF07900D92A217B307ED
:10017000D9F7FE011BBE04C01D92A217B307E1F719
:10018000E933F40721F70E94F3260C94C700F89492
:02019000FFCF9F
:100192004D432B41424F5554004D432B424C4F424D
:1001A20054455354004D432B50494E47004D432B69
:1001B2004252494447454D4F4445004D432B454328
:1001C200432B47454E5055424B4559004D432B4515
:1001D20043432B4C4F434B004D432B4543432B4F43
:1001E20054502B52454144004D432B4543432B5021
:1001F20055424B45592B52454144004D432B4543F3
:10020200432B5055424B45592B5752495445004DAB
:10021200432B4543432B52454144004D432B454319
:10022200432B53455249414C004D432B4543432BED
:100232005349474E444947455354004D432B454388
:10024200432B5752495445424C4F42004D432B4792
:1002520045544C4544004D432B4C495354434F4D58
:100262004D414E4453004D432B5245534554004D8E
:10027200432B5345544C4544004D432B5645525352
:04028200494F4E0092
:10028600434F4D4D414E4448414E444C455200313A
:100296002E332E300025730D0A004649524D574124
:1002A600524500302E332E30004156522D496F54A0
:1002B6002043656C6C756C6172004156522D496F16
:1002C600542043656C6C756C61722070726F766930
:1002D60073696F6E696E672046570025730D0A466F
:1002E600572025730D0A436F6D6D616E642068613A
:1002F6006E646C65722025730D0A666F72207468D1
:10030600652025730D0A004D432B504F4E473D2562
:0503160073000D0A0058
:10031B009201002C1D009B01006B2901A7010048D5
:10032B002100AF0100F61C00BD0100601300CE01DF
:10033B0000F11900DA0100B40D00EA0100691400A4
:10034B00FD01004212011102007F0C001D0200DDB5
:10035B001B002B0200BF14013D02001F0D014E02BA
:10036B0000751100580200E818006802000D280003
:0C037B007102006E19007B0200A110004E
:100387000D0A0057656C636F6D6520746F20746884
:1003970065204156522D496F542043656C6C756C2E
:1003A70061722070726F766973696F6E696E67200C
:1003B700636F6D6D616E642068616E646C65722138
:1003C7000D0A0052454144590D0A004F4B0D0A00D2
:1003D7004552524F523A20307825580D0A003E00B8
:1003E700511B002828002419001C32004313021552
:1003F7002300408D0230050056A50017230008375B
:10040700001614004632001B170002050080E001A9
:10041700771409474B00419902200A00453D041211
:020427002D00A6
:10042900511B002828002419001C320043AC001578
:10043900230040D70030050056A5001723000837D0
:10044900001614004632001B170002050080A000A8
:10045900777102472A0041DC00200A004527011272
:020469002D0064
:10046B00511B002828002419001C3200434B001597
:10047B00190040730030050056A5001723000837FC
:10048B00001614004632001B1700020500805000B6
:10049B0077FA00472400417300200A0045690012D7
:0204AB002D0022
:1004AD004F4E004F4646004C45443A257320697324
:1004BD00204F4E0A0D004C45443A25732069732098
:1004CD004F46460A0D0045525200444154410043E7
:0E04DD004F4E4E0043454C4C005553455200C7
:1004EB00280D002414001C3200433A00150B004069
:1004FB007300111700300200172000080E00161DA4
:10050B00000103004630001B1700020500470900DD
:0C051B00413C00200A00454800121A0074
:10052700280D002414001C3200150B004073001125
:100537001700300200172000080E00161D000103E7
:10054700004630001B1700020500470900413C0028
:09055700200A00454800121A00B8
:100560002826001C3E00152B001145003002001704
:100570001800082300163C000102001B320002058F
:0A05800000471600200C00122A00AC
:0A058A005045524D414E454E5400BD
:100594009F92AF92BF92CF92DF92EF92FF920F930E
:1005A4001F93CF93DF9300D01F92CDB7DEB7F82E01
:1005B400009105401091064000381105A8F082E032
:1005C40090E00E94C61D10920540109206408F2DA7
:1005D4000E949527882321F081E080938A4406C2F3
:1005E40083E080938A4402C280918A448130A9F0D6
:1005F40038F0823009F433C1833009F4A4C1ACC1AA
:10060400109205401092064081E080938A448F2D19
:100614000E949527882361F0E9C18F2D0E949527B8
:10062400882309F49DC10115110509F0A4C1DEC197
:1006340081E090E08093054090930640F09208405A
:10064400D5C10F2EFBE1CF2EF3E0DF2EF0E0EF2E2D
:10065400F02D00E010E05801F6015E2D0E948A277B
:100664009E012F5F3F4F48E050E40E945E168823AE
:10067400A9F0C501880F991FA80EB91EAA0CBB1CAE
:10068400C501A0E0855E9C4FAF4F809300409093DE
:100694000140A09302400F1550F086C10F5F1F4F19
:1006A40026E0C20ED11CE11C0F15A8F279C11092EC
:1006B400074009811A81D8018C918D3309F078C1E2
:1006C40011968C910E949527811172C10F5F1F4F63
:1006D40087E890E4D82ED01A00938B4410938C446E
:1006E400DD2009F461C1E12C5801F80180810E94E8
:1006F400DB23F82ED8018D938D010E949527882342
:1007040059F0EE2009F450C1F501108280910740A0
:100714008F5F809307404CC1FCE2FF1212C0EE20B1
:1007240009F442C1F80131971082E0910740EF5F6C
:10073400E0930740F0E0EE0FFF1FE557FB4B00830B
:100744001183E394DE1409F42FC1809107408F30A4
:1007540058F22AC1E0910740EE23E1F1F0E0EE0FF8
:10076400FF1FE757FB4B6081718180E820E030E098
:10077400AE014F5F5F4F0E942907609388407093DA
:1007840089406130744068F080E094E08093884050
:100794009093894084E090E00E94C61D10928A44A0
:1007A40025C199818A815B81E92FF82F0E94A228B3
:1007B400611109C065EE73E080E00E94942182E03B
:1007C40080938A4413C184E090E00E94C61D109275
:1007D4008A440CC181E090E00E94C61D10928A44B4
:1007E40005C10396A11DFC015A2F0E943128FB016B
:1007F40023E030E44AE850E46BE874E48091074075
:1008040009956C018091034090910440892B09F172
:100814008091DF469091E046892BD9F00F2EFAE8BB
:10082400EF2EF0E4FF2EF02D00E010E0E091DF4623
:10083400F091E046D7018D917D0109950F5F1F4F1F
:1008440080910340909104400817190778F30E949F
:10085400A928C6010E94C61D10928A44C7C00091EF
:100864000340109104400115110539F48F2D0E94A5
:100874009527882309F4B2C0B9C08091884090912B
:1008840089400817190758F4C8010196809303405A
:1008940090930440F801E657FF4BF082A7C08F2DD8
:1008A4000E949527882309F446C00E94A9288091B4
:1008B400004090910140A09102400396A11DFC01CB
:1008C4005A2F0E943128FB0123E030E44AE850E427
:1008D4006BE874E48091074009956C0180910340B2
:1008E40090910440892BF9F08091DF469091E04685
:1008F400892BC9F00F2EFAE8EF2EF0E4FF2EF02D2D
:1009040000E010E0E091DF46F091E046D7018D91E0
:100914007D0109950F5F1F4F809103409091044022
:100924000817190778F30E94A928C6010E94C61D5A
:1009340010928A445BC084E090E00E94C61D83E06C
:1009440080938A4453C08F2D0E949527882309F4ED
:100954004DC010928A444AC083E080938A4446C0C2
:10096400C80101968093054090930640F801E85F22
:10097400FF4BF0823BC0C8010196809305409093E1
:100984000640F801E85FFF4BF0820E94A92888E046
:1009940090E489839A830E948829F82E811151CE8C
:1009A400CC24C394D12C55CFCC24C394D12C51CF77
:1009B40010920340109204408091004090910140B5
:1009C400A09102409C014A2F2B5F3F4F4F4FF901EA
:1009D400542F0E94A2286111BDCE03CF809188407C
:1009E40090918940892B09F4A6CF4ECF2396CDBF91
:1009F400DEBFDF91CF911F910F91FF90EF90DF90B9
:0A0A0400CF90BF90AF909F9008952F
:100A0E002F923F924F926F927F928F929F92AF92C0
:100A1E00BF92CF92DF92EF92FF920F931F93CF93DD
:100A2E00DF93CDB7DEB76297CDBFDEBF6C013A0163
:100A3E00862E7901FC0117821086848181FFEBC11D
:100A4E009E012F5F3F4F2C873D87C901A0E8888B01
:100A5E00998BAA8B9FE3992EF301582D0E94A22801
:100A6E00862F662309F4D3C1482D93012F5F3F4F84
:100A7E004F4F653219F03901842E0BC0F901542FF6
:100A8E000E94A228862F92E0690E711C811C65328D
:100A9E0029F4B60190E00E942C1BDECFB12C00E0B1
:100AAE0010E01032A0F48B3269F030F4803259F03D
:100ABE00833269F410612CC08D3239F0803339F4F1
:100ACE00116026C01260146023C0186021C017FD8B
:100ADE002AC090ED980F9A3078F416FF06C0AAE05F
:100AEE00BA9E900D1124B92E13C0EAE00E9F900D00
:100AFE001124092F10620CC08E3221F416FD87C10D
:100B0E00106406C08C3611F4106802C0883659F491
:100B1E00F301582D0E94A228862FFFEF6F1A7F0A2D
:100B2E008F0A6111BECF982F9F7D9554933028F474
:100B3E0024E0E20EF11C99820FC0833631F0833728
:100B4E0091F0833509F064C027C0F7018081898355
:100B5E0097012E5F3F4F7901288839884A88AA2449
:100B6E00A394B12C17C0A7014D5F5F4F4E875F87CF
:100B7E00F70120803180428016FF03C04B2D50E0DC
:100B8E0002C04FEF5FEF842DB1010E94BF235C01C5
:100B9E00EE84FF841F7718C097012D5F3F4F2E877D
:100BAE003F87F70120803180428016FF03C04B2D16
:100BBE0050E002C04FEF5FEF842DB1010E94BF23C2
:100BCE005C011068EE84FF8413FD1EC0802F90E040
:100BDE00A816B906C8F4B60180E290E00E942C1B5C
:100BEE000150F4CFF101542D0E94A228862FFFEF61
:100BFE002F1A3F0A4F0AB60190E00E942C1B0111DA
:100C0E00015021E0A21AB108A114B10459F7F5C0A0
:100C1E00843611F0893671F5F70117FF08C060812F
:100C2E0071818281938197012C5F3F4F09C0608152
:100C3E007181072E000C880B990B97012E5F3F4F89
:100C4E0079011F76312E97FF0AC090958095709589
:100C5E0061957F4F8F4F9F4F312F3068332E2AE093
:100C6E0030E0AE014F5F5F4F0E94A612482E4C85BA
:100C7E00441A4AC0853729F41F7EA12E2AE030E09F
:100C8E0025C0512F597FA52E8F36C1F018F4883507
:100C9E0079F0BDC0803719F0883721F0B8C0852FA4
:100CAE008061A82EA4FE0DC09A2D9460A92E09C0B5
:100CBE0014FF0AC0A52FA660AA2E06C028E030E0B9
:100CCE0005C020E130E002C020E132E0F701A7FECE
:100CDE0008C06081718182819381A7014C5F5F4F53
:100CEE0007C06081718180E090E0A7014E5F5F4F89
:100CFE007A01AE014F5F5F4F0E94A612482E5C85AF
:100D0E00451A8A2D8F77382E36FE0DC0932D9E7F75
:100D1E00A92E4B1458F434FE0BC032FC09C0A32D7F
:100D2E00AE7EAA2E05C0142DA32C03C0142D01C017
:100D3E001B2DA4FE0EC0FE01E40DF11D808180333B
:100D4E0021F4EA2DE97EAE2E08C0A2FE05C01E5F7C
:100D5E0004C08A2D867809F01F5FA3FC11C0A0FE87
:100D6E0006C0101788F4040DB02EB11A0EC010175D
:100D7E0060F4B60180E290E00E942C1B1F5FF7CF5B
:100D8E00101718F4011B02C0B42C00E0A4FE10C012
:100D9E00B60180E390E00E942C1BA2FE17C0A1FCBE
:100DAE0003C088E790E002C088E590E0B6010CC071
:100DBE008A2D867859F0A1FE02C08BE201C080E236
:100DCE00A7FC8DE2B60190E00E942C1B4B1438F468
:100DDE00B60180E390E00E942C1BBA94F7CF4A94A0
:100DEE00E1E0F0E0EC0FFD1FE40DF11D8081B60196
:100DFE0090E00E942C1B4110F2CF002309F42CCE60
:100E0E00B60180E290E00E942C1B0150F6CFF60155
:100E1E008781908502C08FEF9FEF6296CDBFDEBFB8
:100E2E00DF91CF911F910F91FF90EF90DF90CF90B8
:100E3E00BF90AF909F908F907F906F904F903F900C
:040E4E002F90089544
:100E52002F923F924F925F926F927F928F92AF92B8
:100E6200BF92CF92DF92EF920F931F93CF93DF93B4
:100E7200CDB7DEB72697CDBFDEBF3B01882E5A0124
:100E820019014115510521F0FA01608371838283B2
:100E92002114310429F0C1010297839708F021C17E
:100EA200E82C6301FFEFCF1ADF0AEF0AF301582D96
:100EB2000E94A228162F862F90E00E943A283C2DED
:100EC2002D2D5E2D892B19F036018E2CE9CF1D3286
:100ED20069F4E82C630142E0C40ED11CE11CE32F4B
:100EE200F22F0E94A228162F01E00EC01B3259F4E5
:100EF200E82C630182E0C80ED11CE11CE32FF22F23
:100F02000E94A228162F00E02114310409F190E179
:100F12002916310429F43FC010E32114310421F1D0
:100F2200F8E02F16310401F154F432E023163104B3
:100F320021F5412C512C612C50E4752E4CC04AE015
:100F42002416310439F050E125163104B1F43EC0C3
:100F5200103319F13AE0232E312C4CEC442E542C50
:100F6200642C4CE0742E37C098E0292E312C412C91
:100F7200512C612C20E1722E2EC060E070E080E0E6
:100F820090E89101032C000C440B550B0E9469223E
:100F920029013A0120C01033C9F4F6015E2D0E94E6
:100FA200A2286F7D683509F0B7CFAE2DC601019634
:100FB200A11DFC015A2F0E94A228162FE2E0CE0E9C
:100FC200D11CE11C026060E1262E312C412C512CF7
:100FD200612C88E0782E70E080E090E0DC019101E5
:100FE200032C000C440B550B29833A834B835C83FF
:100FF200E0EDE10FEA3060F02FEB210F2A3110F41F
:10100200E9EC05C02FE9210F2A3178F5E9EAE10F71
:101012002E2F30E02215330544F577FD1CC048160B
:1010220059066A067B06A0F029813A814B815C81D0
:10103200BC01CD010E942426DC01CB018E0F911D43
:10104200A11DB11D81309105A10530E8B30710F053
:101052007FEF01C071E0F6015E2D0E94A228162FDB
:101062004FEFC41AD40AE40AC3CF202F2170A1146F
:10107200B104B1F0772349F051E0C51AD108E10873
:10108200F501C082D182E2820BC001FF1DC0F2E0F5
:10109200CF1AD108E108F501C082D182E28214C0E0
:1010A20077FF12C0222329F080E090E0A0E0B0E8B0
:1010B20004C08FEF9FEFAFEFBFE722E230E0209353
:1010C200C8443093C94409C0222381F0B095A09549
:1010D200909581959F4FAF4FBF4FBC012A2F9B2FF9
:1010E20012C060E070E020E090E00DC0B7FFF5CFE5
:1010F20082E290E08093C8449093C9448FEF9FEFBF
:10110200AFEFBFE7EACF822F2696CDBFDEBFDF91DA
:10111200CF911F910F91EF90DF90CF90BF90AF9042
:101122008F907F906F905F904F903F902F90089597
:101132004F925F926F927F928F92AF92BF92CF92B5
:10114200DF92EF92FF920F931F93CF93DF93CDB76E
:10115200DEB72697CDBFDEBF3B01882E5A0189013B
:101162004115510521F0FA016083718382830115D3
:10117200110529F0C8010297839708F005C1E82CF0
:101182006301FFEFCF1ADF0AEF0AF301582D0E9425
:10119200A228F62E862F90E00E943A283C2D2D2D73
:1011A2005E2D892B19F036018E2CE9CF4DE2F41217
:1011B2000EC0E82C630182E0C80ED11CE11CE32FB3
:1011C200F22F0E94A228F62E882483940FC0EBE20D
:1011D200FE120BC0E82C6301F2E0CF0ED11CE11C21
:1011E200E32FF22F0E94A228F62E812C0115110561
:1011F200A1F00031110531F4D0C080E3F82E0115C1
:10120200110571F10A30110509F442C000311105CE
:10121200F1F00830110569F523C0F0E3FF1236C082
:10122200F6015E2D0E94A2286F7D683531F7AE2D42
:10123200C6010196A11DFC015A2F0E94A228F62E7A
:1012420022E0C20ED11CE11C382D3260832E00E157
:1012520010E044244A94542C642C3FE0732E1EC0A8
:1012620008E010E044244A94542C642C2FE1722E9E
:1012720015C06FEF7FEFCB019801012E000C440BDC
:10128200550B0E94692229013A0108C00AE010E0C8
:1012920099E9492E542C642C99E1792E70E080E072
:1012A20090E0DC019801012E000C440B550B2983C0
:1012B2003A834B835C83E0EDEF0DEA3060F02FEB75
:1012C2002F0D2A3110F4E9EC05C02FE92F0D2A3138
:1012D20090F5E9EAEF0D2E2F30E0201731075CF58B
:1012E2007F3FF9F0481659066A067B06B8F0298155
:1012F2003A814B815C81BC01CD010E9424262E2FB4
:1013020030E040E050E0DC01CB01820F931FA41FCC
:10131200B51F82179307A407B50710F47FEF01C02A
:1013220071E0F6015E2D0E94A228F62E3FEFC31A4D
:10133200D30AE30AC0CFA114B10489F0772329F0BC
:1013420041E0C41AD108E10806C081FE08C0F2E0FB
:10135200CF1AD108E108F501C082D182E28280FE73
:1013620007C0B095A095909581959F4FAF4FBF4F05
:101372007F3F79F482E290E08093C8449093C9441D
:101382006FEF2FEF9FEF0DC060E070E020E090E084
:1013920008C0BC012A2F9B2F04C020E3F21257CFB2
:1013A2003FCF822F2696CDBFDEBFDF91CF911F9117
:1013B2000F91FF90EF90DF90CF90BF90AF908F9002
:0A13C2007F906F905F904F900895A8
:1013CC002F923F924F926F927F928F929F92AF92F9
:1013DC00BF92CF92EF92FF920F931F93CF93DF9315
:1013EC00CDB7DEB72697CDBFDEBF19821A82833008
:1013FC0008F0A1C0823021F46031710508F09DC065
:10140C00E114F10409F49BC001151105210509F43F
:10141C0098C0F701E42BF52BE370FF27EF2B09F0B5
:10142C0092C057011801422E4A016D837E83182FFA
:10143C00AE014F5F5F4F0E94DC118111ABC029815F
:10144C003A81C701880D991D2817390708F47DC00A
:10145C00C40196958795929582958F7089279F7078
:10146C0089278B839C839FE1892299249694879466
:10147C0096948794612C712C8114910441F5C501CB
:10148C0086199709809718F1111105C08B819C81E1
:10149C00029709F46CC06894CC24C5F8042D710132
:1014AC00E60CF71C011D77FC0A9520E04B816D8141
:1014BC007E81812F0E94AD1681116CC090E2690E65
:1014CC00711C8B819C8101968B839C832EC0111186
:1014DC0008C08B819C81029721F495E089169104B8
:1014EC00B1F16894CC24C2F8042D7101E60CF71C00
:1014FC00011D77FC0A95282D4B816D817E81812FF2
:10150C000E94AD16811146C084E0680E711C9FEFDD
:10151C00891A990A88E08816910439F48B819C8188
:10152C0001968B839C83812C912C6A147B0408F488
:10153C00A3CF80E02FC082EE2DC082EE2BC080E0C6
:10154C0029C082EE27C082EE25C082EE23C094E033
:10155C00690E711C0F2EF6E08F2E912CF02DE5CF1D
:10156C0084E0680E711C9FEF891A990ADECF68948B
:10157C00CC24C2F8042D7101E60CF71C011D77FC7C
:10158C000A95282D4B816D817E81812F0E94AD168D
:10159C00882331F32696CDBFDEBFDF91CF911F910B
:1015AC000F91FF90EF90CF90BF90AF909F908F9046
:0C15BC007F906F904F903F902F9008950B
:1015C8002F923F924F925F926F927F928F929F924B
:1015D800AF92BF92CF92DF92EF92FF920F931F9339
:1015E800CF93DF93CDB7DEB7A597CDBFDEBF198206
:1015F8001A82833008F0A2C0823021F4603171056C
:1016080008F09EC00115110509F49CC0211531058B
:1016180009F49AC0680119012A016CA37DA38BA360
:10162800AE014F5F5F4F0E94DC11811190C029818C
:101638003A81C801840D951D2817390708F486C01A
:101648003201769467947694679476946794769446
:101658006794769467946894FF24F5F8812C912C0C
:10166800A12CB12C80E2F8121CC089819A819301C7
:10167800220F331F22953295307F3227207F322761
:10168800821B930B809768F442018A0C9B1C9694EA
:1016980087949694879497E0892299246894FF24E4
:1016A800F2F8EF2C8E010D5F1F4F282D462D6CA1EF
:1016B8007DA18BA10E943110811149C0C301880FFF
:1016C800991F880F991F880F991F880D991D880FDA
:1016D800991F880F991F8415950520F4A201481BAE
:1016E800590B02C040E050E08F2D90E0841B950B11
:1016F80086010A191B098017910708F48C0183E0F9
:1017080090E08C0F9D1F480F591F60E89801C10198
:101718008A0D9B1D0E947524A00EB11E90E2F9123D
:1017280004C08FEF681A780A03C09FEF891A990AD4
:10173800AC14BD0408F496CF80E009C082EE07C05F
:1017480082EE05C080E003C082EE01C082EEA5965D
:10175800CDBFDEBFDF91CF911F910F91FF90EF902A
:10176800DF90CF90BF90AF909F908F907F906F90B9
:0A1778005F904F903F902F9008956E
:10178200EF92FF921F93CF93DF930E94321A60E091
:1017920074E0FB01108240E254E0FA01108220E47E
:1017A20034E081E0F901808380E694E0FC0110825C
:1017B200C0E8D4E01882A0EAB4E01C920F2EF0EC4C
:1017C200EF2EF4E0FF2EF02D11E1F7011083FB0163
:1017D2001482FA011482F9011482FC0114821C821F
:1017E20014961C921497F7011482FB01108A118A35
:1017F200128A138A148A158A168A178AFA01108A9B
:10180200118A18E0128B138B148A158A168A178A8A
:10181200F901108B118B128A138A148A158A168A7F
:10182200178AFC01108A118A128A138A148A158A6D
:10183200168A178A188A198A1A8A1B8A1C8A1D8A8A
:101842001E8A1F8A50961C92509751961C9251974D
:1018520052961C92529753961C92539754961C92EE
:10186200549755961C92559756961C925697579692
:101872001C925797F701108B118B128A138A148AC4
:10188200158A168A178AFB01138616861586148610
:10189200FA011386168615861486F90113861686B2
:1018A20015861486FC0113861686158614861B86F9
:1018B2001E861D861C861B961C921B971E961C92CA
:1018C2001E971D961C921D971C961C92F70113865B
:1018D200168615861486E0EEF5E0118611821082D6
:1018E2001482168217821086158312821382128640
:0C18F200DF91CF911F91FF90EF900895BF
:1018FE00AF92BF92CF92DF92EF92FF920F931F9310
:10190E00CF93DF93CDB7DEB72697CDBFDEBFB82E10
:10191E008B016A01790119821A821B821C82BA011B
:10192E0080E8A9010E943426882309F453C08FEF62
:10193E008B0D823008F051C00115110509F450C00D
:10194E00F8016081718180E8AE014F5F5F4F0E94A8
:10195E003025009709F049C0F1E0FB1570F4F8014D
:10196E006281738180E8AE014D5F5F4F0E9421213D
:10197E00811117C085E090E038C069817A81AE018F
:10198E004B5F5F4F82E00E94DC112D813E812B83E5
:10199E003C83882331F090E09160F7011082118230
:1019AE0039C00B811C8101151105E9F022C0A5017A
:1019BE0060E896018B819C810E941515F70180834A
:1019CE00918380E090E026C0F7011082118290E0B2
:1019DE00916020C085E090E01DC083E090E005C0DE
:1019EE0085E090E002C085E090E0F7011082118260
:1019FE0011C0F701108211825601A00EB11E69812D
:101A0E007A81950140E050E082E00E94E40A811163
:101A1E00DBCFCDCF2696CDBFDEBFDF91CF911F910D
:101A2E000F91FF90EF90DF90CF90BF90AF90089501
:101A3E006F927F928F92BF92CF92DF92EF92FF9230
:101A4E000F931F93CF93DF9300D000D0CDB7DEB7A7
:101A5E00B82E6B017A01890119821A821B821C82AF
:101A6E003A0180E8882EA901882DB3010E94342600
:101A7E00882309F447C0E3E0BE124AC0C114D10462
:101A8E0009F449C0F6016081718180E8AE014F5FB3
:101A9E005F4F0E943025009709F045C0F601628124
:101AAE00738180E8AE014D5F5F4F0E942121882334
:101ABE00A9F12B813C812115310599F138C0220FF6
:101ACE00331F8217930731F0F8011082118285E0DF
:101ADE0090E033C09701682DA3010E941314F80102
:101AEE0010821182EB80FC8069817A81282D83011E
:101AFE0040E050E082E00E94E609882331F090E059
:101B0E0091601BC085E090E018C080E090E015C0A9
:101B1E0083E090E008C085E090E005C085E090E0AD
:101B2E0002C085E090E0F8011082118206C0F80133
:101B3E0080819181009741F2C2CF2496CDBFDEBF46
:101B4E00DF91CF911F910F91FF90EF90DF90CF908B
:0A1B5E00BF908F907F906F90089564
:101B6800AF92BF92CF92DF92EF92FF920F931F93A3
:101B7800CF93DF9300D000D0CDB7DEB7182F5B012D
:101B88006A01790119821A82BA0180E8A9010E94C2
:101B98003426882309F444C0123008F055C0A11433
:101BA800B10409F454C0112371F0F5016081718109
:101BB80080E8AE014F5F5F4F0E942121811117C05D
:101BC80085E090E049C0AE014D5F5F4F60E070E096
:101BD80081E00E94DC112B813C8129833A83882390
:101BE80031F090E09160F7011082118238C00981CC
:101BF8001A810115110571F116C0A50160E8960159
:101C080089819A810E941515F7018083918380E06C
:101C180090E025C0F7011082118290E091601FC00A
:101C280085E090E01CC0F701108211825601A00ED9
:101C3800B11E950140E050E060E070E081E00E9454
:101C4800E40A8111E7CFD9CF83E090E005C085E0B1
:101C580090E002C085E090E0F7011082118224969E
:101C6800CDBFDEBFDF91CF911F910F91FF90EF9015
:0A1C7800DF90CF90BF90AF90089569
:101C82006F927F928F92CF92DF92EF92DB019C91C3
:101C9200913009F463C0C0F0923019F0933031F002
:101CA20055C074E12BEE34E040E066C011969C9181
:101CB2001197983209F457C0983609F459C076E161
:101CC2002BE634E040E058C02FEF3FEF12962D9301
:101CD2003C9313977EE020E635E040E0F901542F73
:101CE2000E94A228861327C012C03901842E2D5FBC
:101CF2003F4F4F4F6901E42E53E0C51AD108E10866
:101D0200F6015E2D0E94A228681319C002C0390193
:101D1200842E482D93012F5F3F4F4F4FF901542FCF
:101D22000E94312812966D937C9313976F3F7F4FD9
:101D320059F482EF28C02D5F3F4F4F4F90E09F5FD5
:101D4200971798F282EF1FC080E01DC08FEF9FEFC0
:101D520012968D939C93139782EF15C073E127E23D
:101D620035E040E009C076E129E234E040E004C019
:101D720076E127EE33E040E0EFEFFFEF1296ED93CE
:101D8200FC931397ABCFEF90DF90CF908F907F9023
:041D92006F900895B1
:101D9600AF92BF92CF92DF92EF92FF921F93CF93B3
:101DA600DF9300D0CDB7DEB76C017B01DB016D910F
:101DB6007C91FC0182810E94410E811158C0D7019D
:101DC600ED91FC911197A280B38012968D919C9112
:101DD60013970E947025182F811143C0F601418187
:101DE60050E0B601D70112968D919C9113970E94EF
:101DF6007F28182F811135C0B50180E090E00E9440
:101E0600BF25B6E0CB0ED11C80ECF60111928A9567
:101E1600E9F780EC90E089839A83AE014F5F5F4FCC
:101E2600B601D70112968D919C9113970E94862830
:101E3600182F811116C089819A818430910520F46A
:101E4600892B71F417EE0DC0B60180E80E941A18AE
:101E5600182F811106C0C6010E94F71D182F01C058
:101E660016EEF701828193810E94D025812F0F9073
:101E76000F90DF91CF911F91FF90EF90DF90CF9061
:061E8600BF90AF9008952B
:101E8C006F927F928F92AF92BF92CF92DF92EF922E
:101E9C000F931F93CF93DF93CDB7DEB7A097CDBF32
:101EAC00DEBF6115710509F450C09C012850310941
:101EBC002830310508F04BC06B015C016894EE24AE
:101ECC00E5F88E010F5F1F4F20E040E0BC0182E07F
:101EDC000E94311081113DC0AE014B5F5F4F60E835
:101EEC002CE130E0C6010E94752420E041E0B501F0
:101EFC0082E00E94311081112CC0380180E8882EBC
:101F0C0024E030E0682DA301C6014C960E94752494
:101F1C00AE01475F5F4F60E828E130E0C601809674
:101F2C000E94752420E042E0B50182E00E9431104D
:101F3C00182F81110EC028E030E0682DA301C601D6
:101F4C00C8960E947524812F04C082EE02C082EED6
:101F5C0000C0A096CDBFDEBFDF91CF911F910F9136
:101F6C00EF90DF90CF90BF90AF908F907F906F905D
:021F7C000895C6
:101F7E006F927F928F92EF92FF920F931F93CF9358
:101F8E00DF93CDB7DEB7C75CD109CDBFDEBF390158
:101F9E00842EE091E146F091E246E080F180982FA8
:101FAE0093708C836D837E83923048F424E130E00D
:101FBE00682DA301CE0107960E94752415C093309B
:101FCE00B1F585FF09C020E430E0682DA301CE01F4
:101FDE0007960E94752408C020E230E0682DA30108
:101FEE00CE0107960E947524BE016F5F7F4FC70119
:101FFE000E94F623811120C06091E1467091E24665
:10200E00CE0101960E94CB0E811116C0011511054D
:10201E0081F08F81833278F0AE01485F5F4F60E8C8
:10202E0020E230E0C8010E94752480E005C082EEF7
:10203E0003C080E001C080E0C953DF4FCDBFDEBFDB
:10204E00DF91CF911F910F91FF90EF908F907F9026
:04205E006F900895E2
:10206200AF92BF92CF92DF92EF92FF920F931F93A4
:10207200CF93DF93CDB7DEB7C95CD109CDBFDEBF49
:10208200F82E6801012BB9F1E091E146F091E246A8
:10209200A080B18084E0E816E1F180E2E8122DC070
:1020A2002FC08F2D8068F82EFC82C853DF4F8881A5
:1020B2009981C85CD0408D839E83BE016F5F7F4F44
:1020C200C5010E94EF2781112CC06091E1467091F9
:1020D200E246CE0101960E94CB0E182F81110FC04D
:1020E2002E2D30E0AE01485F5F4F60E8C6010E94CE
:1020F2007524812F16C082EE14C082EE12C011C068
:102102008E0108531F4F8F2D0E94591E811109C045
:10211200C8CF8E0108531F4F8F2D0E94591E88234E
:1021220019F2C753DF4FCDBFDEBFDF91CF911F91B1
:102132000F91FF90EF90DF90CF90BF90AF900895F6
:10214200EF92FF920F931F93CF93DF93823008F0A9
:1021520056C08901E52EF42EEB01882351F0288127
:10216200398140E866E872E080E00E946A158823BF
:10217200F1F085E992E0A0E0AF939F938F938BE912
:1021820092E0A0E0AF939F938F9384E08F931F928E
:10219200EF92FF920E94871CF801808391838DB792
:1021A2009EB70A968DBF9EBF80E090E02DC0288129
:1021B200398140E860EA72E080E00E946A15882373
:1021C20009F189EA92E0A0E0AF939F938F938BE9A4
:1021D20092E0A0E0AF939F938F9384E08F931F923E
:1021E200EF92FF920E94871CF801808391838DB742
:1021F2009EB70A968DBF9EBF80E090E005C083E047
:1022020090E002C085E090E0DF91CF911F910F91A5
:06221200FF90EF9008951B
:102218006F927F928F92CF92DF92EF92FF920F93FD
:102228001F93CF93DF93CDB7DEB7C75CD109CDBF7E
:10223800DEBF21153105410509F442C06701E02ED2
:102248003901842EA091E146B091E2460D911C918E
:102258008C836D837E838823B4F420E230E0682D7C
:10226800A301CE0107960E947524C114D104E1048C
:10227800A1F020E230E06E2DA601CE0187960E94E3
:10228800752441E00BC024E030E0682DA301CE01A5
:1022980007960E94752440E001C040E04170BE01ED
:1022A8006F5F7F4FC8010E94BE2481110AC06091F0
:1022B800E1467091E246CE0101960E94CB0E01C024
:1022C80082EEC953DF4FCDBFDEBFDF91CF911F91A3
:1022D8000F91FF90EF90DF90CF908F907F906F904D
:0222E800089557
:1022EA000F931F93CF93DF93813009F059C0E9010F
:1022FA00052F142FFB016081718180E80E94681B01
:10230A00882311F090E04EC0E091AB44F091AC44C8
:10231A000780F085E02D0995882309F1E091AB4407
:10232A00F091AC4482818F9381818F9380818F93C6
:10233A0084EB94E0A0E0AF939F938F9384E08F9314
:10234A001F920F931F930E94871C888399838DB7CE
:10235A009EB70A968DBF9EBF80E090E023C0E091B1
:10236A00AB44F091AC4482818F9381818F938081B9
:10237A008F9383EC94E0A0E0AF939F938F9384E0D4
:10238A008F931F920F931F930E94871C88839983B0
:10239A008DB79EB70A968DBF9EBF80E090E002C0BF
:0E23AA0083E090E0DF91CF911F910F91089595
:1023B8004115510509F45AC0E091E146F091E24611
:1023C8000280F381E02D0180F281E02D918191114D
:1023D8001BC0813059F018F0823079F049C088E587
:1023E80090E0FA018083918380E0089580E490E092
:1023F800FA018083918380E0089580E290E0FA01F9
:102408008083918380E00895813059F018F08230FC
:1024180079F030C080E890E0FA018083918380E011
:10242800089580E490E0FA018083918380E0089524
:102438006830710538F484E290E0FA018083918372
:1024480080E008956830710539F480EA91E0FA0176
:102458008083918380E008956031710568F488E491
:1024680090E0FA018083918380E0089582EE0895D8
:0C24780082EE089582EE089582EE089531
:102484008F929F92AF92BF92CF92DF92EF92FF9280
:102494000F931F93CF93DF9300D0CDB7DEB7F82E01
:1024A4004B015A01890119821A826A0180E8E82ED7
:1024B400A9018E2DB6010E943426882371F1F801FA
:1024C400808191818038910529F01082118285E004
:1024D40090E02BC0F80110821182F2E0FF1220C0BC
:1024E400F4016081718180E8AE014F5F5F4F0E940B
:1024F40030250097D1F495016E2DA60180E890E077
:102504000E9413146E2DA60189819A810E940413DE
:10251400882349F090E0916008C085E090E005C010
:1025240083E090E002C080E090E00F900F90DF9194
:10253400CF911F910F91FF90EF90DF90CF90BF90BC
:08254400AF909F908F90089565
:10254C00FA01AA27283051F1203181F1E8946F93D8
:10255C006E7F6E5F7F4F8F4F9F4FAF4FB1E03ED07E
:10256C00B4E03CD0670F781F891F9A1FA11D680F1C
:10257C00791F8A1F911DA11D6A0F711D811D911D4F
:10258C00A11D20D009F468943F912AE0269F1124C4
:10259C003019305D3193DEF6CF010895462F477028
:1025AC00405D4193B3E00FD0C9F7F6CF462F4F7083
:1025BC00405D4A3318F0495D31FD4052419302D0E1
:1025CC00A9F7EACFB4E0A695979587957795679587
:1025DC00BA95C9F700976105710508959B01AC0187
:1025EC000A2E06945795479537952795BA95C9F7AE
:0C25FC00620F731F841F951FA01D08951F
:102608008F929F92AF92BF92CF92DF92EF92FF92FA
:102618000F931F93CF93DF93CDB7DEB7C056D10981
:10262800CDBFDEBF411551056105A1F16A01E62E56
:102638004C018E010F5F1F4F80E6F80111928A95B9
:10264800E9F720E230E0CE0105960E9475246E2D50
:10265800A601405E5F4F6F4F20E230E0CE018996C1
:102668000E947524580110E0C501A0E86894CC24A4
:10267800C5F87C010A2F20E0412FB40182E00E94B6
:10268800AD16811108C0F0E2AF0EB11C1F5F133008
:1026980059F701C082EEC05ADF4FCDBFDEBFDF91D0
:1026A800CF911F910F91FF90EF90DF90CF90BF9047
:0826B800AF909F908F900895F0
:1026C000AF92BF92DF92EF92FF920F931F93CF933F
:1026D000DF9300D0CDB7DEB7D82E5B017A01890138
:1026E00019821A82BA0180E8A9010E94342688233F
:1026F00071F1F80110821182F1E0FD1558F1DF123D
:102700000CC0F5016081718180E8AE014F5F5F4FC1
:102710000E943025009719F502C019821A825701CC
:10272000F0E4AF0EB11CB50189819A810E94982610
:10273000811113C0A50160E8970180E490E00E9438
:102740001515F8018083918380E090E008C085E052
:1027500090E005C083E090E002C090E091600F90AF
:102760000F90DF91CF911F910F91FF90EF90DF902D
:06277000BF90AF90089538
:10277600CF92DF92EF92FF920F931F93CF93DF9347
:10278600CDB7DEB7C75CD109CDBFDEBFFB01642F75
:10279600A9016801A091E146B091E246ED90FC9056
:1027A6008C83ED83FE8341155105610531F023E0ED
:1027B60030E0CE0107960E947524BE016F5F7F4F01
:1027C600C7010E941426182F81111CC06091E14692
:1027D6007091E246CE0101960E94CB0E182F811110
:1027E60011C0C114D10471F08F81833451F4AE014C
:1027F600485F5F4F60E820E430E0C6010E94752420
:1028060001C016EE812FC953DF4FCDBFDEBFDF916A
:10281600CF911F910F91FF90EF90DF90CF90089589
:102826008F929F92AF92BF92CF92DF92EF920F93C9
:102836001F93CF936A01E62E452B462BA1F18230DA
:102846009105A0F14C019694879481709927880E82
:10285600991E8114910469F189015901A80CB91CCA
:10286600F6015E2D0E94A228862F0E948525C82F7C
:10287600C295C07F82E0C80ED11CE11CAE2DC601F8
:102886000197A109FC015A2F0E94A228862F0E94B7
:1028960085258C2BF80181938F01EA15FB0501F73D
:1028A600882D992D08C080E090E005C080E090E07A
:1028B60002C080E090E0CF911F910F91EF90DF90E2
:0C28C600CF90BF90AF909F908F9008952E
:1028D200AF92BF92DF92EF92FF920F931F93CF932B
:1028E200DF9300D0CDB7DEB7D82E5B017A01890124
:1028F20019821A82BA0180E8A9010E94342688232B
:1029020049F1F80110821182F1E0DF1226C0F501CF
:102912006081718180E8AE014F5F5F4F0E94302578
:10292200009701F55701F0E4AF0EB11CB5018981A2
:102932009A810E94460F811113C0A50160E8970198
:1029420080E490E00E941515F8018083918380E075
:1029520090E008C085E090E005C083E090E002C00E
:1029620090E091600F900F90DF91CF911F910F91A6
:0C297200FF90EF90DF90BF90AF900895B1
:10297E00AF92BF92CF92DF92EF92FF920F931F937F
:10298E00CF93DF93F82E8A01E9016A0180E8E82EE1
:10299E00A9018E2DB6010E943426882379F182E09A
:1029AE00F81629F01882198283E090E02CC0980165
:1029BE006E2DA601888199810E941314803209F52B
:1029CE00580180E4A80EB11C95016E2DA60180E081
:1029DE0090E00E94A31B81110CC0A50160E8980134
:1029EE0080E490E00E9415158883998380E090E042
:1029FE000AC01882198290E0916005C085E090E0CF
:102A0E0002C085E090E0DF91CF911F910F91FF9072
:0C2A1E00EF90DF90CF90BF90AF90089534
:102A2A006F927F928F92AF92BF92CF92DF92EF9284
:102A3A000F931F93CF93DF9341155105610599F1C8
:102A4A000097A1F159013A01862E8C016A01E62EFE
:102A5A00E901680E791E811C97FD8A94F6015E2DA4
:102A6A000E94A228862F82958F700E949B288883B5
:102A7A00F6015E2D0E94A228862F8F700E949B2845
:102A8A0089838FEFC81AD80AE80A2296C614D7048F
:102A9A00E80421F7000F111FF501E00FF11F108262
:102AAA00802F912F05C080E090E002C080E090E086
:102ABA00DF91CF911F910F91EF90DF90CF90BF9050
:0A2ACA00AF908F907F906F900895F9
:102AD4006F927F928F92CF92DF92EF92CF93DF9398
:102AE4003B01882E6901E42EFB01582D0E94A22887
:102AF400C62F662339F180E090E0D0E04E2D960198
:102B0400280F391F411D97FD4A95A42FC901F901CA
:102B14005A2F0E94A228862F0E94DB238C1322C0E6
:102B2400DF5F8D2F90E0482D9301280F391F411D41
:102B340097FD4A95F901542F0E94A228C62F6111CE
:102B4400DDCF02C080E090E0C80ED91EE11C97FDE5
:102B5400EA9481E0F6015E2D0E94A228662319F012
:102B640080E001C080E0DF91CF91EF90DF90CF90C3
:082B74008F907F906F9008958F
:102B7C00EEE7F6E480818E7F808380917A46909197
:102B8C007B46019719F40E94D92802C00E94D328D1
:102B9C00EBE5F6E4878D90A10197878F90A3892BA5
:102BAC0071F0A58DB68D809108098C93858D968DCD
:102BBC000196858F968F0E94C72884E00895ABE517
:102BCC00B6E45D96ED91FC915E9780910809808347
:102BDC005D968D919C915E9701965D968D939C93DD
:102BEC005E97EEE7F6E4808188608083ED91FC913E
:102BFC0011971C968D919C911D970995825082304E
:102C0C0020F40E94D92888E008950E94BF260895D8
:102C1C00E6ECF6E480818E7F80838091C2469091B1
:102C2C00C346019719F40E94152902C00E940F296E
:102C3C00E3EAF6E4878D90A10197878F90A3892B07
:102C4C0071F0A58DB68D809128098C93858D968D0C
:102C5C000196858F968F0E94032984E00895A3EA3C
:102C6C00B6E45D96ED91FC915E9780912809808386
:102C7C005D968D919C915E9701965D968D939C933C
:102C8C005E97E6ECF6E4808188608083ED91FC91A0
:102C9C0011971C968D919C911D97099582508230AD
:102CAC0020F40E94152988E008950E94E6260895D4
:102CBC006F927F928F92CF92DF92EF92FF921F933F
:102CCC00CF93DF933B01882E6A017901FB01582DCC
:102CDC000E94A228D62F6623E9F080E090E010E055
:102CEC00F601E80FF91F80810E94DB238D1323C0AE
:102CFC001F5F812F90E0482D9301280F391F411D34
:102D0C0097FD4A95F901542F0E94A228D62F6111E4
:102D1C00E7CF02C080E090E0E601C80FD91F8881A0
:102D2C008D3321F00E949527882331F0F701C08361
:102D3C00D18381E001C080E0DF91CF911F91FF90A2
:0E2D4C00EF90DF90CF908F907F906F90089562
:102D5A006F927F928F92CF92DF92EF92FF920F93B0
:102D6A001F93CF93DF9300D0CDB7DEB7D82E3701AC
:102D7A00802EEF28E02AA9F084E0C816F9F080E254
:102D8A00C81211C012C08D2D8068D82E69817A812F
:102D9A00E12CF12C00E0482D93018D2D0E940C119D
:102DAA0015C082EE13C082EE11C08E010F5F1F4F55
:102DBA008D2D0E94591E811109C0E5CF8E010F5F2A
:102DCA001F4F8D2D0E94591E882301F30F900F90DB
:102DDA00DF91CF911F910F91FF90EF90DF90CF90ED
:082DEA008F907F906F90089517
:102DF200AF92BF92CF92DF92EF920F931F93CF9336
:102E0200DF9300D000D0CDB7DEB78031910550F509
:102E12006115710549F15B016C016894EE24E2F8D9
:102E22008E010F5F1F4F26E042E060E070E080E01D
:102E32000E943110811119C02A8130E0322F2227DD
:102E42009981292B41E050E002C0440F551FCA94DA
:102E5200E2F72423352391E0232B09F090E0F501DA
:102E6200908303C082EE01C082EE2496CDBFDEBF06
:102E7200DF91CF911F910F91EF90DF90CF90BF9094
:042E8200AF90089570
:102E86000F931F93CF93DF93EC018091E1469091CE
:102E9600E246892B11F00E948B26EDEAF4E484ECDD
:102EA60094E48083918381EB94E482839383BF01CE
:102EB600CE010E94E61E811126C08DEA94E480931D
:102EC600E1469093E24689818330E1F42091AD4456
:102ED6003091AE442F5F3F4F01E010E043E150E0F8
:102EE60060E070E080E00E94E40A81110CC0E0918D
:102EF600E146F091E2460190F081E02D9181987FC4
:102F0600918301C080E0DF91CF911F910F910895C9
:102F1600CF92DF92EF920F931F93CF93DF93CDB7AC
:102F2600DEB72897CDBFDEBF6B01E82E84E089832C
:102F360091E19A8393E39B8393E49C838D8387E05B
:102F46008E8384EC8F8380E4888744305105C1F4F6
:102F56009E012F5F3F4F40E804E010E08E2DB60142
:102F66000E94A620892B71F09E012B5F3F4F40E8FF
:102F76008E2DB6010E94A620892B31F080ED05C06A
:102F860080ED03C080E001C087ED2896CDBFDEBF8F
:102F9600DF91CF911F910F91EF90DF90CF90089521
:102FA6006F927F928F92CF92DF92EF92CF93DF93C1
:102FB600E901009779F16A01E62E3A01862E680E3C
:102FC600791E811C97FD8A9480E090E01BC0A92F92
:102FD600AA1FAA27AA1F880F991F71E0362F35232B
:102FE60009F470E07A1719F025E082279058550FFA
:102FF600319769F72FEFC21AD20AE20AC614D7042C
:10300600E80451F0F6015E2D0E94A228E8E0F0E007
:1030160051E0DDCF80E090E088839983DF91CF9106
:0E302600EF90DF90CF908F907F906F90089585
:10303400CF92DF92EF920F931F93CF93DF9300D041
:10304400CDB7DEB76B01E82EFB015E2D0E94A228EE
:103054006250062F10E09E012F5F3F4F6E2DA60198
:10306400C8010E94D317AE2DC601800F911FA11D68
:1030740017FDAA952981FC015A2F0E94A228261324
:1030840010C00F5F1F4FC00ED11EE11C17FDEA9444
:103094008A81F6015E2D0E94A228861304C080E076
:1030A40003C085EE01C085EE0F900F90DF91CF91A4
:0C30B4001F910F91EF90DF90CF900895D6
:1030C000EF92FF921F93CF93DF93CDB7DEB7C75C2C
:1030D000D109CDBFDEBF7C01E091E146F091E2462F
:1030E000808191811C821D821E82BE016F5F7F4F95
:1030F0000E94E527182F81111CC06091E146709154
:10310000E246CE0101960E94CB0E182F811111C00C
:103110008F81833269F4E114F10459F0AE01485F04
:103120005F4F60E820E230E0C7010E94752401C0D3
:1031300016EE812FC953DF4FCDBFDEBFDF91CF9198
:083140001F91FF90EF9008952C
:103148000F931F93CF93DF93CDB7DEB72597CDBFEE
:10315800DEBF0E9447298C018FEF8D8380E00E949B
:10316800BF1C8823D9F361E070E0CE0105960E9468
:10317800032660E070E080E090E00E94DF280E9473
:103188005B290E94DE218130E1F3F80162897389AD
:1031980080E090E00E94612644E050E08E010F5FDD
:1031A8001F4FB8018091EF460E948523B80180E83F
:1031B80044E050E00E948B172596CDBFDEBFDF911B
:0831C800CF911F910F910895B2
:1031D000FF920F931F93CF93DF93EA018901188227
:1031E000F12C26C08F2D90E09C01220F331F820FFF
:1031F000931F880F991F092E000CAA0B855E9C4F08
:10320000AF4FFC015A2F0E948A27AB01682FCE01D5
:103210000E940325FE0101900020E9F7CF0123E081
:1032200030E048E153E060E001970E947524F39498
:103230000E948829F816B0F2BE0180E80E94AD25F0
:10324000F8018083918380E090E0DF91CF911F911E
:063250000F91FF900895AC
:103256000F931F93CF93DF93CDB7DEB7C75CD1092A
:10326600CDBFDEBF4115510551F18A01282FE091EE
:10327600E146F091E246808191812C836D837E83C5
:10328600BE016F5F7F4F0E94F92781111BC06091BD
:10329600E1467091E246CE0101960E94CB0E811165
:1032A60011C08F81833469F4AE01485F5F4F60E8D7
:1032B60020E430E0C8010E94752480E003C082EE5D
:1032C60001C086EEC953DF4FCDBFDEBFDF91CF9180
:0632D6001F910F91089505
:1032DC00CF93DF938230B1F5EB016881798180E87F
:1032EC000E94681B882311F090E031C02A813B8139
:1032FC0040E86DEA74E080E00E946A15882361F072
:10330C00E091AB44F091AC440580F681E02D81E076
:10331C00099580E090E01BC02A813B8140E860EB7E
:10332C0074E080E00E946A15882379F0E091AB4448
:10333C00F091AC440580F681E02D80E0099580E0A9
:10334C0090E005C083E090E002C085E090E0DF9162
:04335C00CF91089570
:10336000CF92DF92EF920F931F93CF93DF93CDB75E
:10337000DEB7A097CDBFDEBF009731F16C01689436
:10338000EE24E5F88E010F5F1F4F20E040E060E083
:1033900070E080E00E943110182F811117C0AE013B
:1033A0004F5F5F4F60E824E030E0C6010E94752463
:1033B000AE01475F5F4F60E825E030E0C60104964C
:1033C0000E947524812F02C082EE00C0A096CDBF5E
:1033D000DEBFDF91CF911F910F91EF90DF90CF90E3
:0233E00008954E
:1033E200CF93DF9300D01F92CDB7DEB719821A8236
:1033F200813031F56115710531F1FB016081718117
:1034020080E8AE014F5F5F4F0E943025009719F5AB
:10341200BE016D5F7F4F89819A810E94F9168823D0
:1034220019F090E0916017C08B8181110FC08981E2
:103432009A810E944328882361F090E091600BC03A
:1034420083E090E008C085E090E005C080E090E075
:1034520002C080E090E02396CDBFDEBFDF91CF9126
:023462000895CB
:10346400E0E9F4E0808188608193E83984E0F8073A
:10347400C9F7E0EBF4E0808188608193E83B84E065
:10348400F807C9F7E0EDF4E0808188608193E83DB6
:1034940084E0F807C9F7E0E1F4E080818860819373
:1034A400E83184E0F807C9F7E0E3F4E0808188605C
:1034B4008193E83384E0F807C9F7E0E5F4E080811C
:1034C40088608193E83584E0F807C9F7E0E7F4E021
:1034D400808188608193E83784E0F807C9F708950C
:1034E400EF92FF920F931F93CF93DF93FA01008122
:1034F4001181108211820115110521F17A01EB016C
:10350400188241E050E08091EF460E948523488173
:103514008CEF840F8834C0F4842F90E008171907C7
:10352400A8F0AC0141505109BE016F5F7F4F8091FB
:10353400EF460E948523888190E0F7018083918380
:1035440080E005C08DEE03C084EE01C08DEEDF91F6
:0C355400CF911F910F91FF90EF90089510
:103560000E9420298823C9F0ABE5B6E41696ED91B8
:10357000FC91179752968D919C91539709958230A3
:1035800019F0833021F006C00E94B22608950E94EF
:103590000C2708950E9469270895EEE7F6E48081DC
:1035A00088608083ABE5B6E4ED91FC9111971C96A1
:1035B0008D919C911D970995833039F0843041F0AD
:1035C000823049F40E94B22608950E940C27089583
:0C35D0000E94171C08950E9469270895AE
:1035DC000E9425298823C9F0A3EAB6E41696ED913A
:1035EC00FC91179752968D919C9153970995823027
:1035FC0019F0833021F006C00E94CC2608950E9459
:10360C00242708950E9474270895E6ECF6E480813F
:10361C0088608083A3EAB6E4ED91FC9111971C9627
:10362C008D919C911D970995833039F0843041F030
:10363C00823049F40E94CC2608950E9424270895D4
:0C364C000E944F1C08950E9474270895EE
:103658000F931F93CF93DF93FB01248121FD03C0B8
:103668008FEF9FEF2CC022FF16C047815085258120
:1036780036814217530744F4A081B1819D012F5F21
:103688003F4F208331838C93278130852F5F3F4FB5
:103698002783308714C08B01EC01FB010184F2857C
:1036A800E02D0995892BE1F6D80117968D919C910B
:1036B8001897019617968D939C931897CE01DF91D2
:0836C800CF911F910F910895AD
:1036D0006F927F928F92EF92FF920F931F93CF93EF
:1036E000DF933B01882E0AE016E4C0E0D0E0F80149
:1036F000608171818281482D93010E946A1588231F
:1037000089F0CE01880F991F880F991F880F991F84
:103710008C0F9D1F865F994B8093AB449093AC4474
:1037200080E007C02196075F1F4FC530D105F9F62D
:1037300085E0DF91CF911F910F91FF90EF908F90D7
:063740007F906F900895D8
:10374600CF92DF92EF92FF920F931F93CF93DF9367
:10375600EC016A01E62E890180E090E00E94601883
:1037660081111FC0E091E146F091E2460190F0819F
:10377600E02D8081833029F46894FF24F5F880E4F5
:1037860002C0F12C80E020E230E06E2DA6010E94FE
:103796001124811106C0A801BE018F2D80680E94E8
:1037A6002B19DF91CF911F910F91FF90EF90DF9032
:0437B600CF90089513
:1037BA00EF92FF920F931F93CF93DF93F82EEA01B4
:1037CA008901BA0180E8A9010E9434268823F1F010
:1037DA00F1101FC07E0189E0E80EF11CC7010E94AA
:1037EA00B01981110DC0A70160E89E0189E090E03F
:1037FA000E941515F8018083918380E090E00BC048
:10380A00F8011082118290E0916005C085E090E095
:10381A0002C083E090E0DF91CF911F910F91FF905A
:04382A00EF9008957E
:10382E000E9420298823C9F0ABE5B6E41696ED91E7
:10383E00FC91179752968D919C91539709958230D2
:10384E0019F0833021F006C00E94B22608950E941E
:10385E000C2708950E9469270895EEE7F6E480810B
:10386E008E7F8083EBE5F6E4A58DB68DCD010196B6
:10387E00858F968F8C9180930809878D90A10197E3
:10388E00878F90A3892B11F485E0089583E0089526
:10389E000E9425298823C9F0A3EAB6E41696ED9175
:1038AE00FC91179752968D919C9153970995823062
:1038BE0019F0833021F006C00E94CC2608950E9494
:1038CE00242708950E9474270895E6ECF6E480817B
:1038DE008E7F8083E3EAF6E4A58DB68DCD01019649
:1038EE00858F968F8C9180932809878D90A1019753
:1038FE00878F90A3892B11F485E0089583E00895B6
:10390E000F931F93CF93DF93CDB7DEB72F97CDBF16
:10391E00DEBF0E891F89888D998D26E02D83098340
:10392E001A8397FF02C080E090E801978E839F83F1
:10393E009E01235E3F4F4A8D5B8D6C8DCE010196AD
:10394E000E9407054E815F8157FD0AC02885398583
:10395E00421753070CF49A01F801E20FF31F10827D
:10396E002F96CDBFDEBFDF91CF911F910F9108959E
:10397E009091C64692FD31C0E3EAF6E4848FA6EC40
:10398E00B6E4892F887F9EE091A324EF31E0228F49
:10399E00338F846088608C938EE899E28083918364
:1039AE001486158682839383168617868483958361
:1039BE00108A118A86839783128A138A80E999E284
:1039CE0080879187148A158A8DEE809325090E942F
:0E39DE00F1280E94E52880E0089581E0089518
:1039EC00CF93813071F4FB012081318140E86AE88A
:1039FC0075E080E00E946A15811107C085E090E0B7
:103A0C0023C08230E0F4C0E001C0C1E080E090E06F
:103A1C000E94C61D0E948D28882341F00E944324D9
:103A2C00C11102C0843071F00E948B220E94942834
:103A3C00882381F30E9409230E94CB22EBCF83E0E1
:0C3A4C0090E002C080E090E0CF9108956F
:103A5800CF93DF93E9018FEA92E0A0E0AF939F93C1
:103A68008F9385E992E0A0E0AF939F938F9389EAC3
:103A780092E0A0E0AF939F938F9380EC92E0A0E058
:103A8800AF939F938F9381EE92E0A0E0AF939F93C3
:103A98008F9384E08F931F925F934F930E94871CAC
:103AA800888399838DB79EB743968DBF9EBF80E06C
:083AB80090E0DF91CF91089529
:103AC0000F931F93CF93DF9300D01F92CDB7DEB734
:103AD000962F9A01E62FF72F582F0E94A2286623CF
:103AE000D1F08901692F20E030E0AE014F5F5F4FD8
:103AF0000E949908F80160837183828393832981EE
:103B00009A815B8181E0E22FF92F0E94A22866232F
:103B100019F080E001C080E02396CDBFDEBFDF91C9
:083B2000CF911F910F91089550
:103B280040E068ED88E790E00E941B2940E068EDDE
:103B38008CE790E00E941B2940E068ED81E690E068
:103B48000E941B2940E068ED82E690E00E941B2954
:103B580040E068ED83E690E00E941B2940E068EDB4
:103B680080E690E00E941B2940E068ED85E690E041
:103B78000E941B2944E268ED88E690E00E941B2918
:043B880080E008953C
:103B8C000F931F93CF93DF93CDB7DEB7A097CDBF25
:103B9C00DEBF009731F462ED73E080E00E94942167
:103BAC0018C09F938F9387ED93E0A0E0AF939F9302
:103BBC008F931F9280E28F938E010F5F1F4F1F9385
:103BCC000F930E94871CB80180E80E949421CDBFFE
:103BDC00DEBFA096CDBFDEBFDF91CF911F910F91BD
:023BEC0008953A
:103BEE00FC012081243049F581818730D1F040F4E9
:103BFE00813089F020F1833081F0853081F01BC057
:103C0E008F3099F018F4883071F015C0813179F049
:103C1E008F3F79F010C081ED089582ED089586ED05
:103C2E00089587ED08958AEF089584EF089583EF40
:103C3E00089584ED089581EE089580E0089580E062
:023C4E000895D7
:103C50000F931F93CF93DF93EC018B0189819A819E
:103C60000E947B20F801808191818B839C838281DB
:103C700093818D839E83848195818F8398878681AC
:103C8000978189879A87808591858B879C87848592
:103C900095858F87988B828593858D879E87808970
:103CA0009189898B9A8B80E0DF91CF911F910F9141
:023CB000089575
:103CB2000F931F930115110541F0837041F082307B
:103CC200A1F0813021F082EE1FC082EE1DC050E0D3
:103CD200440F551F440F551F440F551F2770422B89
:103CE200F8014083518380E00FC0277030E0342B0D
:103CF200660F771F660F771F660F771F262B372BEE
:0E3D0200F8012083318380E01F910F91089516
:103D10000F931F93CF93DF93CDB7DEB76297CDBFDD
:103D2000DEBF8C01BE016F5F7F4F0E94281ED8014D
:103D300011966D917C9112971396ED91FC911497C9
:103D4000CE010196099581110AC089899A89F801E5
:103D5000818B928B0580F681E02DC80109956296D2
:0E3D6000CDBFDEBFDF91CF911F910F9108956F
:103D6E001F920F920FB60F9211240BB60F922F9334
:103D7E003F934F935F936F937F938F939F93AF93E5
:103D8E00BF93EF93FF935E9B05C0E091ED46F091DC
:103D9E00EE4609958FEF8BB9FF91EF91BF91AF91E1
:103DAE009F918F917F916F915F914F913F912F9145
:0E3DBE000F900BBE0F900FBE0F901F90189528
:103DCC000F931F93CF93DF930097E1F0611571056B
:103DDC00D9F0FB012081318121153105B9F04281E7
:103DEC005381452BA9F0EB018C01B901FC018181B8
:103DFC000E94D12781110DC06A817B81C8010E946C
:103E0C009A2507C082EE05C082EE03C082EE01C087
:0C3E1C0082EEDF91CF911F910F9108956D
:103E2800CF93DF93CDB7DEB7C75CD109CDBFDEBF77
:103E3800E091E146F091E24620813181FE01319620
:103E480097ECDF011D929A95E9F78C836D837E8349
:103E5800BF01C9010E94DB27811108C06091E146BA
:103E68007091E246CE0101960E94CB0EC953DF4FF6
:0A3E7800CDBFDEBFDF91CF910895AA
:103E82001F920F920FB60F9211240BB60F922F931F
:103E92003F934F935F936F937F938F939F93AF93D0
:103EA200BF93EF93FF93E091E546F091E64630979A
:103EB20009F00995FF91EF91BF91AF919F918F9179
:103EC2007F916F915F914F913F912F910F900BBE18
:0A3ED2000F900FBE0F901F9018957F
:103EDC001F920F920FB60F9211240BB60F922F93C5
:103EEC003F934F935F936F937F938F939F93AF9376
:103EFC00BF93EF93FF93E091E346F091E446309744
:103F0C0009F00995FF91EF91BF91AF919F918F911E
:103F1C007F916F915F914F913F912F910F900BBEBD
:0A3F2C000F900FBE0F901F90189524
:103F36001F920F920FB60F9211240BB60F922F936A
:103F46003F934F935F936F937F938F939F93AF931B
:103F5600BF93EF93FF93E091EB46F091EC463097D9
:103F660009F00995FF91EF91BF91AF919F918F91C4
:103F76007F916F915F914F913F912F910F900BBE63
:0A3F86000F900FBE0F901F901895CA
:103F90001F920F920FB60F9211240BB60F922F9310
:103FA0003F934F935F936F937F938F939F93AF93C1
:103FB000BF93EF93FF93E091E946F091EA46309783
:103FC00009F00995FF91EF91BF91AF919F918F916A
:103FD0007F916F915F914F913F912F910F900BBE09
:0A3FE0000F900FBE0F901F90189570
:103FEA00CF93DF930E94B52880917E4680FF07C059
:103FFA000E942029882319F08FE080937C460E9432
:10400A00C128882319F080E180937C460E94BB284E
:10401A00882319F081E180937C46CBE5D6E4E9A1B7
:10402A00F0E0EE0FFF1FE95CF94B0190F081E02D03
:0A403A00099589A3DF91CF91089545
:10404400CF93DF930E94F1288091C64680FF07C07A
:104054000E942529882319F08FE08093C4460E948A
:10406400FD28882319F080E18093C4460E94F72834
:10407400882319F081E18093C446C3EAD6E4E9A118
:10408400F0E0EE0FFF1FE158F94B0190F081E02DB5
:0A409400099589A3DF91CF910895EB
:10409E00CF93DF9300D0CDB7DEB719821A8221E01D
:1040AE0020938A448093DF469093E0466AE873E05B
:1040BE0080E00E9494219E012F5F3F4F4AE850E41A
:1040CE0060E070E080E00E942C1D6AE870E480E8F9
:1040DE000E9494216AEC73E080E00E9494210F907C
:0840EE000F90DF91CF910895BE
:1040F600FB01DC018C91811124C088E798E2808362
:1041060091838AE899E28283938382E79AE18683A0
:10411600978388E497E2848395838BE595E2848789
:10412600958784EA98E18087918786E495E282877D
:1041360093878CE899E286879787108A118A80E0B0
:06414600089580EF0895CA
:10414C00CF92DF92EF920F931F936B01E82E011524
:10415C001105A9F0F6015E2D0E94A228862FF90107
:10416C00542F0E94A22886130DC0015011098FEF05
:10417C00C81AD80AE80A2F5F3F4F4F4FE8CF80E0AC
:10418C0090E003C090E0861B91091F910F91EF9076
:06419C00DF90CF900895B2
:1041A2001F920F920FB60F9211240BB60F922F93FC
:1041B2003F934F935F936F937F938F939F93AF93AD
:1041C200BF93EF93FF930E94F51FFF91EF91BF9171
:1041D200AF919F918F917F916F915F914F913F919D
:1041E2002F910F900BBE0F900FBE0F901F9018953E
:1041F2001F920F920FB60F9211240BB60F922F93AC
:104202003F934F935F936F937F938F939F93AF935C
:10421200BF93EF93FF930E942220FF91EF91BF91F2
:10422200AF919F918F917F916F915F914F913F914C
:104232002F910F900BBE0F900FBE0F901F901895ED
:104242000F931F93CF93DF9300D000D0CDB7DEB78B
:104252008A01AE014F5F5F4F0E94601D882379F093
:1042620049815A816B817C814115510591E0690731
:10427200710520F4F8014083518301C080E0249647
:0E428200CDBFDEBFDF91CF911F910F91089548
:10429000CF93DF938130E9F4E901FB0181818F93B2
:1042A00080818F938DE093E0A0E0AF939F938F93F5
:1042B00084E08F931F925F934F930E94871C8883A3
:1042C00099838DB79EB709968DBF9EBF80E090E021
:0C42D00002C083E090E0DF91CF910895E0
:1042DC00E0E2F8E081E493E08087918780ED8583CC
:1042EC0080EC868383E08783138614861686158676
:1042FC00E091E746F091E84683E597E20995109244
:10430C00FA461092FB461092F9461092F74610921C
:0C431C00F8461092F6460E940027089513
:10432800CF92DF92EF926B01E82E8091DF46909159
:10433800E046892BB1F0F6015E2D0E94A228662383
:1043480081F08FEFC81AD80AE80AE091DF46F091A9
:10435800E046862F0995F6015E2D0E94A22861117C
:0A436800F0CFEF90DF90CF900895A2
:104372006115710581F090E0FC01EE0FFF1FED5514
:10438200F94B60837183880F991FFC01E155F94B4A
:1043920040835183089590E0FC01EE0FFF1FED551D
:1043A200F94B2EE839E220833183880F991FFC01F3
:0A43B200E155F94B108211820895C5
:1043BC00CF93DF930E94F728882341F0E6ECF6E4D4
:1043CC0080818D7F808382E08093C5468091C64634
:1043DC0081FD0EC0E6ECF6E48B7F8083C3EAD6E465
:1043EC008FEF8C8F0E94F1280E94EB288AA101C0CC
:0843FC0081E0DF91CF910895EB
:10440400EF92FF920F931F93CF93C82F8B017A01E2
:104414008C2F0E94BF1C8823D9F3B701C8010E94C6
:10442400032660E070E082E999E20E94DF280E949E
:104434005B290E94DE218130E1F3CF911F910F911E
:06444400FF90EF900895C7
:10444A00EEE7F6E480818E7F8083ABE5B6E482E016
:10445A0092968C9392971496ED91FC91159750969B
:10446A008D919C9151970995823019F0833021F0F2
:10447A0006C00E94B22608950E940C2708950E9441
:04448A006927089501
:10448E00E6ECF6E480818E7F8083A3EAB6E482E0D8
:10449E0092968C9392971496ED91FC911597509657
:1044AE008D919C9151970995823019F0833021F0AE
:1044BE0006C00E94CC2608950E94242708950E94CB
:0444CE0074270895B2
:1044D200A1E21A2EAA1BBB1BFD010DC0AA1FBB1F06
:1044E200EE1FFF1FA217B307E407F50720F0A21B78
:1044F200B30BE40BF50B661F771F881F991F1A94E5
:1045020069F760957095809590959B01AC01BD010E
:04451200CF01089538
:104516002091F8462F5F2F739091F6469034E1F381
:10452600E22FF0E0E653FA4B80832093F8460FB66D
:10453600F8940F928091F6468F5F8093F6460F901F
:104546000FBE569905C0E0E2F8E08581806285835A
:024556000895C6
:104558008091F046882389F0E091F146EF5FEF7390
:10456800E093F146F0E0E65BFA4B80818093A20885
:104578008091F04681508093F0468091F0468111F9
:0E45880005C0E0EAF8E085818F7D8583089507
:104596002091F2462F5F2F739091F0469034E1F30D
:1045A600E22FF0E0E65BFA4B80832093F2460FB6EB
:1045B600F8940F928091F0468F5F8093F0460F90AB
:0E45C6000FBEE0EAF8E08581806285830895EB
:1045D4008091F646882389F0E091F746EF5FEF7308
:1045E400E093F746F0E0E653FA4B8081809322088B
:1045F4008091F64681508093F6468091F64681116B
:0E46040005C0E0E2F8E085818F7D8583089592
:10461200CF938091F9468823E1F3E091FA46EF5F68
:10462200CE2FCF77C093FA460FB6F8940F928091AF
:10463200F94681508093F9460F900FBE0E940027E1
:0E464200EC2FF0E0E653FB4B8081CF91089502
:104650000E94B528ABE5B6E482E092968C939297DF
:104660001296ED91FC9113971E968D919C911F9738
:104670000995823019F0833021F006C00E94B226DD
:0E46800008950E940C2708950E945E27089559
:10468E000E94F128A3EAB6E482E092968C93929768
:10469E001296ED91FC9113971E968D919C911F97FA
:1046AE000995823019F0833021F006C00E94CC2685
:0E46BE0008950E94242708950E943027089531
:1046CC0080E480934204E6E5F4E080818860808396
:1046DC0084E999E28093ED469093EE46E0E4F4E0B1
:1046EC008689887F8160868B80E8809345048093DF
:0E46FC00410482E08093860480938104089537
:10470A00EF92FF920F931F93CF93C82F8B017A01D9
:10471A008C2F0E94BF1C8823D9F3B701C8010E94BD
:10472A0003260E9457290E94DE218130E1F3CF91AE
:0A473A001F910F91FF90EF9008957A
:10474400E0EAF8E081E493E08087918780ED858357
:1047540080EC868383E08783138614861686158609
:104764001092F4461092F5461092F3461092F146D8
:0A4774001092F2461092F0460895EC
:10477E00CF92DF92EF926B01E82E9A01A82FCB0118
:10478E002115310531F48C199D09EF90DF90CF90F2
:10479E000895FC015A2F0E94A2286623A1F30196C8
:0847AE00A11D21503109ECCFDF
:1047B600882389F08D3089F08A3089F090EE980F41
:1047C600913480F025E8280F243060F081568A3134
:1047D60040F4892F089580E008958DE008958AE0D9
:0647E600089583E208952E
:1047EC00FB019381892F837026E12283823018F498
:1047FC008BE1818309C0833061F495FF03C087E4AA
:10480C00818302C087E28183CF010E946F2680E002
:06481C00089582EE0895EC
:104822000F931F93807C2032310511F4836004C002
:104832002034310551F483629A01462F00E010E0E2
:1048420060E070E00E94BF0F01C082EE1F910F91E5
:024852000895C7
:104854001F920F920FB60F9211240BB60F928F93E3
:10486400EF93FF93E0EAF8E0848180648483FF910E
:10487400EF918F910F900BBE0F900FBE0F901F9072
:02488400189585
:104886008091F3468823E1F3E091F446EF5FEF73FE
:10489600E093F4460FB6F8940F928091F346815058
:1048A6008093F3460F900FBEF0E0E657FA4B8081F7
:0248B600089563
:1048B8001F920F920FB60F9211240BB60F928F937F
:1048C800EF93FF93E0E2F8E0848180648483FF91B2
:1048D800EF918F910F900BBE0F900FBE0F901F900E
:0248E800189521
:1048EA00CF92DF92EF92DC016A01E62E280F391F80
:1048FA00A217B30751F0F6015E2D0E94A2286D930C
:10490A004FEFC41AD40AE40AF3CFEF90DF90CF90A6
:02491A000895FE
:10491C000F931F93CF93DF93CAE0D6E407E316E41B
:10492C00EB81FC810995ED81FE8180E0099529964A
:10493C00C017D107A9F7DF91CF911F910F9108955F
:10494C0090912008E091FB46EF5FEF778091FA465B
:10495C00E81769F0E093FB46F0E0E653FB4B9083DD
:10496C008091F9468F5F8093F9460E940027089545
:10497C00FB0182E1828387E08183838188231CF49D
:10498C0087E2818302C08BE08183442319F081810B
:0E499C00805E8183CF010E946F2680E0089527
:1049AA009091C64691FD11C0E6ECF6E492609083C0
:1049BA00882321F081E08093C44603C082E080937B
:0E49CA00C4460E94222080E0089581E00895F6
:1049D8000E94C10B0E9466230E943C270E945B280C
:1049E8000E9453280E94941D0E946E210E94A223B7
:0E49F8000E94F2250E94A5260E947D260895A9
:104A06009A01462FDC01BD016F5F7F4F5C915523F4
:104A160011F0DB01F8CFF901542F0E94A2286D9303
:0E4A2600662321F02F5F3F4F4F4FF5CF0895CD
:104A34009091A008E091F546EF5FEF738091F44602
:104A4400E81759F0E093F546F0E0E657FA4B908307
:0C4A54008091F3468F5F8093F346089535
:104A6000CF93DF93EA010E942121882339F08881C6
:104A70009981409730F480E090E005C085E090E0B7
:0C4A800002C085E090E0DF91CF91089526
:104A8C00CF93DF931F92CDB7DEB782E0898341E0ED
:104A9C0050E0BE016F5F7F4F8091EF460E94022273
:0A4AAC0080E00F90DF91CF91089594
:104AB600CF93DF931F92CDB7DEB781E0898341E0C4
:104AC60050E0BE016F5F7F4F8091EF460E94022249
:0A4AD60080E00F90DF91CF9108956A
:104AE000CF93DF93EC01EB85FC850995803D51F474
:104AF00069E170E080E090E00E94BF25EB85FC85D5
:0A4B0000CE010995DF91CF910895D1
:104B0A00982F80ED890F8A3078F08FEB890F8630E5
:104B1A0018F489EC890F08958FE9890F863018F403
:0A4B2A0089EA890F089580E00895DC
:104B3400009769F06115710561F0FB01DC012C91AE
:104B4400208381839283CB010E94881E089582EE84
:064B5400089582EE0895B1
:104B5A009B01482FA82FCB01FC015A2F0E94A228A3
:104B6A00662319F00196A11DF7CF642FA901841BB2
:044B7A00950B0895FA
:104B7E00611571058105910559F0EFE6F7E1319761
:104B8E00F1F700C000006150710981099109A9F780
:024B9E00089578
:104BA000CF93DC011D96ED91FC911E970995C82FBE
:104BB00061E070E080E090E00E94BF258C2FCF91F3
:024BC000089556
:104BC200CF93DF93009749F0EC0169897A89888154
:104BD2000E944B28198A1A8A01C082EEDF91CF9176
:024BE200089534
:104BE4008CE080932604E0E2F9E01082128283E7ED
:104BF400868381E08383158217821482108680E085
:024C0400089511
:104C06009C019091C64693FF0BC0E3EAF6E4258F1C
:104C1600368F678F70A3E6ECF6E4892F877F808353
:024C26000895EF
:104C2800FB0180E48283838184FF03C08AE081835F
:104C380002C087E08183CF010E946F2680E008953B
:104C4800DB018F939F930E947F27BF91AF91A29F13
:104C5800800D911DA39F900DB29F900D1124089572
:104C68004115510541F0672B682B39F4FA01108280
:0E4C7800118280E0089580E0089581E00895A3
:104C86001F920F920FB60F9211248F9381E080939B
:0E4C9600AA008F910F900FBE0F901F901895DF
:104CA400A29FB001B39FC001A39F700D811D112469
:0E4CB400911DB29F700D811D1124911D089558
:104CC200611571058105910541F028E02A95F1F7FA
:0C4CD2006150710981099109C1F7089532
:104CDE00AC014F5F5F4FFC018181825090E09A01E1
:0C4CEE00280F391F60E80E94D3170895BA
:104CFA0087EC96E40E944317811106C080E090E099
:0C4D0A000E94432881E0089580E0089595
:104D16008091E1469091E2460E940328811104C0E9
:0A4D26001092E1461092E246089553
:104D30000F931F938B0120E030E040E0BC0180E046
:0A4D40000E94BB131F910F9108950C
:104D4A0041E068ED80E191E00E941B29E0E1F1E099
:0A4D5A0012821382789480E008951D
:104D6400EEE7F6E480818160808380917746880F46
:0A4D740081608093070984E0089530
:104D7E000E94D9280E94CD28EEE7F6E480818D7F2F
:0A4D8E00808310927D4680E00895B6
:104D9800E6ECF6E48081816080838091BF46880FCD
:0A4DA80081608093270984E00895DC
:104DB2008DEE80932509E6ECF6E480818D7F808379
:0A4DC20082E08093C5468EE008955C
:104DCC000E9415290E940929E6ECF6E480818D7F6A
:0A4DDC0080831092C54680E0089520
:104DE6000E94EC240E948E2480E899E20E944F20C3
:0A4DF6000E9443240E94CA02FBCF72
:104E00008091F9468E3720F480E880934604089517
:084E100080E880934504089539
:104E1800EEE7F6E480818160808380917746880F91
:084E28008093070983E008955F
:104E30000E941F28EEE7F6E480818D7F808382E068
:084E400080937D468EE0089589
:104E4800E6ECF6E48081816080838091BF46880F1C
:084E58008093270983E008950F
:104E60008DEE80932509E6ECF6E480818D7F8083CA
:084E70001092C5468EE0089582
:104E780040E068ED80EA90E00E941B29E0EAF0E05B
:084E88001186108680E00895F8
:104E900083E0FB0180834F5F5F4F8091EF460E946C
:064EA000022280E00895EB
:104EA6008AB18091F646882329F0E0E2F8E0858110
:064EB6008062858308956F
:104EBC000E941F28EEE7F6E480818D7F808310929C
:064ECC007D468EE0089512
:104ED2000E94CD28EEE7F6E480818D7F80831092D8
:064EE2007D4680E008950A
:104EE8000E940929E6ECF6E480818D7F8083109288
:064EF800C54680E00895AC
:104EFE000E945226A59F900DB49F900DA49F800DE9
:064F0E00911D112408951D
:104F140057FD05C05BBF67917791879108956191B3
:064F2400719181910895D6
:104F2A008A3029F091E08D3019F090E001C091E0CB
:044F3A00892F08951E
:104F3E00882321F080E28093C604089580E2809356
:044F4E00C5040895F9
:104F5200882321F080E18093C604089580E1809344
:044F6200C5040895E5
:104F6600882321F088E08093C604089588E0809322
:044F7600C5040895D1
:104F7A00882321F084E08093C604089584E0809316
:044F8A00C5040895BD
:104F8E00882321F081E080932604089581E08093A8
:044F9E002504089549
:104FA2006115710529F0FB018083118280E008956B
:044FB20082EE0895EE
:104FB600CB0127E1FB01228327E021830E946F2694
:044FC60080E00895EA
:104FCA00CB012BE1FB01228327E021830E946F267C
:044FDA0080E00895D6
:104FDE00CB0122E0FB01228327E021830E946F2672
:044FEE0080E00895C2
:104FF200CB0121E4FB01228327E021830E946F265B
:0450020080E00895AD
:10500600009731F0FC01828193810E94E125089589
:0450160082EE089589
:10501A0041E068ED81E490E00E941B2980E090E085
:02502A000895E7
:10502C00EEE7F6E480818D7F808310927D4680E0F0
:02503C000895D5
:10503E00E0E0F9E0848188608483858181608583E6
:02504E000895C3
:10505000E6ECF6E480818D7F80831092C54680E087
:025060000895B1
:1050620057FD04C05BBF679177910895619171917B
:0250720008959F
:1050740091110C948329803219F089508550C8F716
:0250840008958D
:10508600880F880F60E070E082600E94141F089508
:10509600811104C0CB010E948C29089581EE0895E8
:1050A60040E068ED80E590E00E941B2980E00895CD
:1050B60040E068ED80E091E00E941B2980E00895C1
:0E50C6008AB385FB882780F991E08927089539
:0E50D4008AB383FB882780F991E0892708952D
:0E50E2008AB382FB882780F991E08927089520
:0E50F000FB01828186958093EF4680E0089553
:0E50FE00DC011796ED91FC9118970995089525
:0E510C00DC011996ED91FC911A970995089512
:0E511A009091F34681E0911101C080E008956C
:0E5128009091F94681E0911101C080E0089558
:0E5136008F708A3010F4805D0895895C0895B2
:0E51440057FD03C05BBF679108956081089519
:0C51520067E873E080E00E94942108955B
:0C515E008AB38295817091E08927089542
:0C516A00E0E0F9E08581806C8583089509
:0C5176008091050982FB882780F90895CC
:0C5182008091050983FB882780F90895BF
:0C518E00E0E0F9E08481826084830895F1
:0C519A00E0E0F9E08481836084830895E4
:0C51A600E0E0F9E084818B7F84830895B1
:0C51B200E0E0F9E08481846084830895CB
:0C51BE00AB01BC0182E00E94B921089501
:0C51CA00E0E2F9E08381806C83830895AB
:0C51D600E0E2F9E083818F738383089589
:0C51E200E0E2F9E08581806C858308958F
:0C51EE008091250982FB882780F9089534
:0C51FA008091250983FB882780F9089527
:0C520600E0E2F9E0848182608483089576
:0C521200E0E2F9E0848183608483089569
:0C521E00E0E2F9E084818B7F8483089536
:0C522A00E0E2F9E0848184608483089550
:0A5236001BBEFC0164BF4083089515
:0A52400080910509829581700895A0
:0A524A008091250982958170089576
:0A5254008093ED469093EE46089516
:08525E0080E28093C104089571
:0852660080E18093C10408956A
:08526E0088E08093C10408955B
:0852760084E08093C104089557
:08527E0081E0809321040895F2
:0852860086B180958170089546
:08528E00FC0181819281089569
:085296000E94D32883E0089573
:08529E000E94D32884E008956A
:0852A6000E94D92888E0089558
:0852AE0081E00E94D52408955F
:0852B60080E00E94D524089558
:0852BE000E940F2983E008950E
:0852C6000E940F2984E0089505
:0852CE000E94152988E00895F3
:0652D60080E090E0089565
:0652DC000E94B2260895B5
:0652E2000E94B2260895AF
:0652E8000E940C2708954E
:0652EE000E94CC26089589
:0652F4000E94CC26089583
:0652FA000E942427089524
:065300000E94CB2208957B
:0653060099278827089595
:04530C000C940000FD
:0453100082E1089599
:0453140080E0089598
:0453180080E0089594
:04531C0081E008958F
:0453200085E0089587
:0453240083E0089585
:025328000895E6
:10532A00D304002F299F276328D704003329A927EC
:10533A00AF28DC04003729B3276A28E104003B2997
:0D534A00BD277128E604003F29C72743292D
:105357001628B2260C27171CBE15B01A71297429F6
:105367006E2969274F294B29BF2653295E272522F6
:0453770028231827A8
:10537B002828CC2624274F1C0E16EE1A7A297D29B5
:10538B007729742763295F29E62667293027472267
:04539B004723D926A5
:10539F000003B002A0860100000000000000000022
:0853AF000000180614000000C4
:0253B700AC2226
:0253B9001A25B3
:0253BB002A299D
:0253BD00EA22E2
:0253BF00A62422
:02000004008278
:090000000000000000C00800002F
:00000001FF
